{
  "contractName": "HealthCare",
  "abi": [
    {
      "inputs": [],
      "stateMutability": "nonpayable",
      "type": "constructor"
    },
    {
      "anonymous": false,
      "inputs": [
        {
          "indexed": false,
          "internalType": "address",
          "name": "add",
          "type": "address"
        },
        {
          "indexed": false,
          "internalType": "string",
          "name": "name",
          "type": "string"
        },
        {
          "indexed": false,
          "internalType": "string",
          "name": "role",
          "type": "string"
        }
      ],
      "name": "Signup",
      "type": "event"
    },
    {
      "inputs": [
        {
          "internalType": "string",
          "name": "_name",
          "type": "string"
        },
        {
          "internalType": "uint256",
          "name": "_phone",
          "type": "uint256"
        },
        {
          "internalType": "string",
          "name": "_email",
          "type": "string"
        },
        {
          "internalType": "string",
          "name": "_dob",
          "type": "string"
        },
        {
          "internalType": "string",
          "name": "_bloodGroup",
          "type": "string"
        },
        {
          "internalType": "string",
          "name": "_permanentAddress",
          "type": "string"
        }
      ],
      "name": "addPatient",
      "outputs": [],
      "stateMutability": "nonpayable",
      "type": "function"
    },
    {
      "inputs": [],
      "name": "getPatientProfile",
      "outputs": [
        {
          "internalType": "string",
          "name": "name",
          "type": "string"
        },
        {
          "internalType": "string",
          "name": "email",
          "type": "string"
        },
        {
          "internalType": "string",
          "name": "dob",
          "type": "string"
        },
        {
          "internalType": "string",
          "name": "bloodGroup",
          "type": "string"
        },
        {
          "internalType": "string",
          "name": "permanentAddress",
          "type": "string"
        },
        {
          "components": [
            {
              "internalType": "uint256",
              "name": "ID",
              "type": "uint256"
            },
            {
              "internalType": "string",
              "name": "testName",
              "type": "string"
            },
            {
              "internalType": "address",
              "name": "hospital",
              "type": "address"
            },
            {
              "internalType": "address",
              "name": "doctor",
              "type": "address"
            },
            {
              "internalType": "uint256",
              "name": "price",
              "type": "uint256"
            },
            {
              "internalType": "string",
              "name": "date",
              "type": "string"
            },
            {
              "internalType": "uint256",
              "name": "value",
              "type": "uint256"
            },
            {
              "internalType": "uint256",
              "name": "min",
              "type": "uint256"
            },
            {
              "internalType": "uint256",
              "name": "max",
              "type": "uint256"
            },
            {
              "internalType": "uint256",
              "name": "weight",
              "type": "uint256"
            },
            {
              "internalType": "address[]",
              "name": "signatures",
              "type": "address[]"
            }
          ],
          "internalType": "struct HealthCare.Analysis[]",
          "name": "history",
          "type": "tuple[]"
        }
      ],
      "stateMutability": "view",
      "type": "function",
      "constant": true
    },
    {
      "inputs": [
        {
          "internalType": "address",
          "name": "doctor_id",
          "type": "address"
        }
      ],
      "name": "grantAccessToDoctor",
      "outputs": [],
      "stateMutability": "nonpayable",
      "type": "function"
    },
    {
      "inputs": [
        {
          "internalType": "address",
          "name": "doctor_id",
          "type": "address"
        }
      ],
      "name": "removeAccessFromDoctor",
      "outputs": [],
      "stateMutability": "nonpayable",
      "type": "function"
    },
    {
      "inputs": [
        {
          "internalType": "string",
          "name": "_name",
          "type": "string"
        },
        {
          "internalType": "string",
          "name": "email",
          "type": "string"
        },
        {
          "internalType": "uint256",
          "name": "phone",
          "type": "uint256"
        },
        {
          "internalType": "string",
          "name": "_type_name",
          "type": "string"
        },
        {
          "internalType": "string",
          "name": "_location",
          "type": "string"
        }
      ],
      "name": "addDoctor",
      "outputs": [],
      "stateMutability": "nonpayable",
      "type": "function"
    },
    {
      "inputs": [
        {
          "internalType": "string",
          "name": "name",
          "type": "string"
        },
        {
          "internalType": "string",
          "name": "descr",
          "type": "string"
        },
        {
          "internalType": "string",
          "name": "location",
          "type": "string"
        },
        {
          "internalType": "uint256",
          "name": "_phone",
          "type": "uint256"
        },
        {
          "internalType": "string",
          "name": "_email",
          "type": "string"
        }
      ],
      "name": "addHospital",
      "outputs": [],
      "stateMutability": "nonpayable",
      "type": "function"
    },
    {
      "inputs": [
        {
          "internalType": "address",
          "name": "doc",
          "type": "address"
        }
      ],
      "name": "assignHostpitalToDoctor",
      "outputs": [],
      "stateMutability": "nonpayable",
      "type": "function"
    },
    {
      "inputs": [],
      "name": "Login",
      "outputs": [
        {
          "internalType": "address",
          "name": "id",
          "type": "address"
        },
        {
          "internalType": "string",
          "name": "name",
          "type": "string"
        },
        {
          "internalType": "string",
          "name": "email",
          "type": "string"
        },
        {
          "internalType": "string",
          "name": "role",
          "type": "string"
        }
      ],
      "stateMutability": "view",
      "type": "function",
      "constant": true
    }
  ],
  "bytecode": "0x6080604052600060015534801561001557600080fd5b50336000806101000a81548173ffffffffffffffffffffffffffffffffffffffff021916908373ffffffffffffffffffffffffffffffffffffffff160217905550614d0e806100656000396000f3fe608060405234801561001057600080fd5b50600436106100885760003560e01c8063a744dd3c1161005b578063a744dd3c14610104578063cd1f168e14610120578063d70e5c861461013c578063f00ac1da1461015857610088565b80631644f4401461008d5780631c8e251c146100b05780631d79e363146100cc57806359f8d36c146100e8575b600080fd5b610095610179565b6040516100a7969594939291906140a4565b60405180910390f35b6100ca60048036038101906100c5919061416f565b6109d3565b005b6100e660048036038101906100e191906142fd565b611235565b005b61010260048036038101906100fd91906143e8565b6117b2565b005b61011e6004803603810190610119919061416f565b611ee5565b005b61013a6004803603810190610135919061416f565b6125d5565b005b610156600480360381019061015191906144d3565b612b83565b005b610160612efe565b60405161017094939291906145fb565b60405180910390f35b606080606080606080336000600460008373ffffffffffffffffffffffffffffffffffffffff1673ffffffffffffffffffffffffffffffffffffffff1681526020019081526020016000209050600073ffffffffffffffffffffffffffffffffffffffff168160000160009054906101000a900473ffffffffffffffffffffffffffffffffffffffff1673ffffffffffffffffffffffffffffffffffffffff1611610259576040517f08c379a0000000000000000000000000000000000000000000000000000000008152600401610250906146c7565b60405180910390fd5b6000600460003373ffffffffffffffffffffffffffffffffffffffff1673ffffffffffffffffffffffffffffffffffffffff168152602001908152602001600020604051806101000160405290816000820160009054906101000a900473ffffffffffffffffffffffffffffffffffffffff1673ffffffffffffffffffffffffffffffffffffffff1673ffffffffffffffffffffffffffffffffffffffff16815260200160018201805461030c90614716565b80601f016020809104026020016040519081016040528092919081815260200182805461033890614716565b80156103855780601f1061035a57610100808354040283529160200191610385565b820191906000526020600020905b81548152906001019060200180831161036857829003601f168201915b50505050508152602001600282015481526020016003820180546103a890614716565b80601f01602080910402602001604051908101604052809291908181526020018280546103d490614716565b80156104215780601f106103f657610100808354040283529160200191610421565b820191906000526020600020905b81548152906001019060200180831161040457829003601f168201915b5050505050815260200160048201805461043a90614716565b80601f016020809104026020016040519081016040528092919081815260200182805461046690614716565b80156104b35780601f10610488576101008083540402835291602001916104b3565b820191906000526020600020905b81548152906001019060200180831161049657829003601f168201915b505050505081526020016005820180546104cc90614716565b80601f01602080910402602001604051908101604052809291908181526020018280546104f890614716565b80156105455780601f1061051a57610100808354040283529160200191610545565b820191906000526020600020905b81548152906001019060200180831161052857829003601f168201915b5050505050815260200160068201805461055e90614716565b80601f016020809104026020016040519081016040528092919081815260200182805461058a90614716565b80156105d75780601f106105ac576101008083540402835291602001916105d7565b820191906000526020600020905b8154815290600101906020018083116105ba57829003601f168201915b505050505081526020016007820180548060200260200160405190810160405280929190818152602001828054801561066557602002820191906000526020600020905b8160009054906101000a900473ffffffffffffffffffffffffffffffffffffffff1673ffffffffffffffffffffffffffffffffffffffff168152602001906001019080831161061b575b50505050508152505090508060200151816060015182608001518360a001518460c00151600560003373ffffffffffffffffffffffffffffffffffffffff1673ffffffffffffffffffffffffffffffffffffffff16815260200190815260200160002080805480602002602001604051908101604052809291908181526020016000905b828210156109b657838290600052602060002090600b0201604051806101600160405290816000820154815260200160018201805461072790614716565b80601f016020809104026020016040519081016040528092919081815260200182805461075390614716565b80156107a05780601f10610775576101008083540402835291602001916107a0565b820191906000526020600020905b81548152906001019060200180831161078357829003601f168201915b505050505081526020016002820160009054906101000a900473ffffffffffffffffffffffffffffffffffffffff1673ffffffffffffffffffffffffffffffffffffffff1673ffffffffffffffffffffffffffffffffffffffff1681526020016003820160009054906101000a900473ffffffffffffffffffffffffffffffffffffffff1673ffffffffffffffffffffffffffffffffffffffff1673ffffffffffffffffffffffffffffffffffffffff1681526020016004820154815260200160058201805461086f90614716565b80601f016020809104026020016040519081016040528092919081815260200182805461089b90614716565b80156108e85780601f106108bd576101008083540402835291602001916108e8565b820191906000526020600020905b8154815290600101906020018083116108cb57829003601f168201915b5050505050815260200160068201548152602001600782015481526020016008820154815260200160098201548152602001600a820180548060200260200160405190810160405280929190818152602001828054801561099e57602002820191906000526020600020905b8160009054906101000a900473ffffffffffffffffffffffffffffffffffffffff1673ffffffffffffffffffffffffffffffffffffffff1681526020019060010190808311610954575b505050505081525050815260200190600101906106e9565b505050509050985098509850985098509850505050909192939495565b336000600460008373ffffffffffffffffffffffffffffffffffffffff1673ffffffffffffffffffffffffffffffffffffffff1681526020019081526020016000209050600073ffffffffffffffffffffffffffffffffffffffff168160000160009054906101000a900473ffffffffffffffffffffffffffffffffffffffff1673ffffffffffffffffffffffffffffffffffffffff1611610aaa576040517f08c379a0000000000000000000000000000000000000000000000000000000008152600401610aa1906146c7565b60405180910390fd5b826000600360008373ffffffffffffffffffffffffffffffffffffffff1673ffffffffffffffffffffffffffffffffffffffff168152602001908152602001600020604051806101000160405290816000820160009054906101000a900473ffffffffffffffffffffffffffffffffffffffff1673ffffffffffffffffffffffffffffffffffffffff1673ffffffffffffffffffffffffffffffffffffffff168152602001600182018054610b5e90614716565b80601f0160208091040260200160405190810160405280929190818152602001828054610b8a90614716565b8015610bd75780601f10610bac57610100808354040283529160200191610bd7565b820191906000526020600020905b815481529060010190602001808311610bba57829003601f168201915b50505050508152602001600282018054610bf090614716565b80601f0160208091040260200160405190810160405280929190818152602001828054610c1c90614716565b8015610c695780601f10610c3e57610100808354040283529160200191610c69565b820191906000526020600020905b815481529060010190602001808311610c4c57829003601f168201915b5050505050815260200160038201548152602001600482018054610c8c90614716565b80601f0160208091040260200160405190810160405280929190818152602001828054610cb890614716565b8015610d055780601f10610cda57610100808354040283529160200191610d05565b820191906000526020600020905b815481529060010190602001808311610ce857829003601f168201915b50505050508152602001600582018054610d1e90614716565b80601f0160208091040260200160405190810160405280929190818152602001828054610d4a90614716565b8015610d975780601f10610d6c57610100808354040283529160200191610d97565b820191906000526020600020905b815481529060010190602001808311610d7a57829003601f168201915b505050505081526020016006820160009054906101000a900473ffffffffffffffffffffffffffffffffffffffff1673ffffffffffffffffffffffffffffffffffffffff1673ffffffffffffffffffffffffffffffffffffffff16815260200160078201805480602002602001604051908101604052809291908181526020018280548015610e7b57602002820191906000526020600020905b8160009054906101000a900473ffffffffffffffffffffffffffffffffffffffff1673ffffffffffffffffffffffffffffffffffffffff1681526020019060010190808311610e31575b5050505050815250509050600073ffffffffffffffffffffffffffffffffffffffff16816000015173ffffffffffffffffffffffffffffffffffffffff1611610ef9576040517f08c379a0000000000000000000000000000000000000000000000000000000008152600401610ef0906147b9565b60405180910390fd5b6000600460003373ffffffffffffffffffffffffffffffffffffffff1673ffffffffffffffffffffffffffffffffffffffff16815260200190815260200160002090506000600360008873ffffffffffffffffffffffffffffffffffffffff1673ffffffffffffffffffffffffffffffffffffffff16815260200190815260200160002090506001600760003373ffffffffffffffffffffffffffffffffffffffff1673ffffffffffffffffffffffffffffffffffffffff16815260200190815260200160002060008973ffffffffffffffffffffffffffffffffffffffff1673ffffffffffffffffffffffffffffffffffffffff168152602001908152602001600020541061103e576040517f08c379a000000000000000000000000000000000000000000000000000000000815260040161103590614825565b60405180910390fd5b81600701879080600181540180825580915050600190039060005260206000200160009091909190916101000a81548173ffffffffffffffffffffffffffffffffffffffff021916908373ffffffffffffffffffffffffffffffffffffffff160217905550600760003373ffffffffffffffffffffffffffffffffffffffff1673ffffffffffffffffffffffffffffffffffffffff16815260200190815260200160002060008873ffffffffffffffffffffffffffffffffffffffff1673ffffffffffffffffffffffffffffffffffffffff168152602001908152602001600020600081548092919061113090614874565b9190505550600660008873ffffffffffffffffffffffffffffffffffffffff1673ffffffffffffffffffffffffffffffffffffffff16815260200190815260200160002060003373ffffffffffffffffffffffffffffffffffffffff1673ffffffffffffffffffffffffffffffffffffffff16815260200190815260200160002060008154809291906111c290614874565b919050555080600701339080600181540180825580915050600190039060005260206000200160009091909190916101000a81548173ffffffffffffffffffffffffffffffffffffffff021916908373ffffffffffffffffffffffffffffffffffffffff16021790555050505050505050565b6000600260003373ffffffffffffffffffffffffffffffffffffffff1673ffffffffffffffffffffffffffffffffffffffff1681526020019081526020016000206040518060c00160405290816000820160009054906101000a900473ffffffffffffffffffffffffffffffffffffffff1673ffffffffffffffffffffffffffffffffffffffff1673ffffffffffffffffffffffffffffffffffffffff1681526020016001820180546112e790614716565b80601f016020809104026020016040519081016040528092919081815260200182805461131390614716565b80156113605780601f1061133557610100808354040283529160200191611360565b820191906000526020600020905b81548152906001019060200180831161134357829003601f168201915b5050505050815260200160028201805461137990614716565b80601f01602080910402602001604051908101604052809291908181526020018280546113a590614716565b80156113f25780601f106113c7576101008083540402835291602001916113f2565b820191906000526020600020905b8154815290600101906020018083116113d557829003601f168201915b505050505081526020016003820154815260200160048201805461141590614716565b80601f016020809104026020016040519081016040528092919081815260200182805461144190614716565b801561148e5780601f106114635761010080835404028352916020019161148e565b820191906000526020600020905b81548152906001019060200180831161147157829003601f168201915b505050505081526020016005820180546114a790614716565b80601f01602080910402602001604051908101604052809291908181526020018280546114d390614716565b80156115205780601f106114f557610100808354040283529160200191611520565b820191906000526020600020905b81548152906001019060200180831161150357829003601f168201915b50505050508152505090507fc5d2460186f7233c927e7db2dcc703c0e500b653ca82273b7bfad8045d85a4708660405160200161155d91906148f8565b60405160208183030381529060405280519060200120036115b3576040517f08c379a00000000000000000000000000000000000000000000000000000000081526004016115aa90614935565b60405180910390fd5b600073ffffffffffffffffffffffffffffffffffffffff16816000015173ffffffffffffffffffffffffffffffffffffffff161115611627576040517f08c379a000000000000000000000000000000000000000000000000000000000815260040161161e906149a1565b60405180910390fd5b6040518060c001604052803373ffffffffffffffffffffffffffffffffffffffff16815260200187815260200183815260200184815260200186815260200185815250600260003373ffffffffffffffffffffffffffffffffffffffff1673ffffffffffffffffffffffffffffffffffffffff16815260200190815260200160002060008201518160000160006101000a81548173ffffffffffffffffffffffffffffffffffffffff021916908373ffffffffffffffffffffffffffffffffffffffff160217905550602082015181600101908051906020019061170c929190613bcc565b506040820151816002019080519060200190611729929190613bcc565b50606082015181600301556080820151816004019080519060200190611750929190613bcc565b5060a082015181600501908051906020019061176d929190613bcc565b509050507f807cc07179f4a5c23823cab6e41e49bfd0d66ab9891a7669cd7a3a014304db1e33876040516117a2929190614a0d565b60405180910390a1505050505050565b6000600360003373ffffffffffffffffffffffffffffffffffffffff1673ffffffffffffffffffffffffffffffffffffffff168152602001908152602001600020604051806101000160405290816000820160009054906101000a900473ffffffffffffffffffffffffffffffffffffffff1673ffffffffffffffffffffffffffffffffffffffff1673ffffffffffffffffffffffffffffffffffffffff16815260200160018201805461186590614716565b80601f016020809104026020016040519081016040528092919081815260200182805461189190614716565b80156118de5780601f106118b3576101008083540402835291602001916118de565b820191906000526020600020905b8154815290600101906020018083116118c157829003601f168201915b505050505081526020016002820180546118f790614716565b80601f016020809104026020016040519081016040528092919081815260200182805461192390614716565b80156119705780601f1061194557610100808354040283529160200191611970565b820191906000526020600020905b81548152906001019060200180831161195357829003601f168201915b505050505081526020016003820154815260200160048201805461199390614716565b80601f01602080910402602001604051908101604052809291908181526020018280546119bf90614716565b8015611a0c5780601f106119e157610100808354040283529160200191611a0c565b820191906000526020600020905b8154815290600101906020018083116119ef57829003601f168201915b50505050508152602001600582018054611a2590614716565b80601f0160208091040260200160405190810160405280929190818152602001828054611a5190614716565b8015611a9e5780601f10611a7357610100808354040283529160200191611a9e565b820191906000526020600020905b815481529060010190602001808311611a8157829003601f168201915b505050505081526020016006820160009054906101000a900473ffffffffffffffffffffffffffffffffffffffff1673ffffffffffffffffffffffffffffffffffffffff1673ffffffffffffffffffffffffffffffffffffffff16815260200160078201805480602002602001604051908101604052809291908181526020018280548015611b8257602002820191906000526020600020905b8160009054906101000a900473ffffffffffffffffffffffffffffffffffffffff1673ffffffffffffffffffffffffffffffffffffffff1681526020019060010190808311611b38575b50505050508152505090507fc5d2460186f7233c927e7db2dcc703c0e500b653ca82273b7bfad8045d85a47086604051602001611bbf91906148f8565b6040516020818303038152906040528051906020012003611c15576040517f08c379a0000000000000000000000000000000000000000000000000000000008152600401611c0c90614935565b60405180910390fd5b600073ffffffffffffffffffffffffffffffffffffffff16816000015173ffffffffffffffffffffffffffffffffffffffff161115611c89576040517f08c379a0000000000000000000000000000000000000000000000000000000008152600401611c80906149a1565b60405180910390fd5b6040518061010001604052803373ffffffffffffffffffffffffffffffffffffffff168152602001878152602001868152602001858152602001848152602001838152602001600073ffffffffffffffffffffffffffffffffffffffff168152602001600067ffffffffffffffff811115611d0757611d066141a6565b5b604051908082528060200260200182016040528015611d355781602001602082028036833780820191505090505b50815250600360003373ffffffffffffffffffffffffffffffffffffffff1673ffffffffffffffffffffffffffffffffffffffff16815260200190815260200160002060008201518160000160006101000a81548173ffffffffffffffffffffffffffffffffffffffff021916908373ffffffffffffffffffffffffffffffffffffffff1602179055506020820151816001019080519060200190611ddb929190613bcc565b506040820151816002019080519060200190611df8929190613bcc565b50606082015181600301556080820151816004019080519060200190611e1f929190613bcc565b5060a0820151816005019080519060200190611e3c929190613bcc565b5060c08201518160060160006101000a81548173ffffffffffffffffffffffffffffffffffffffff021916908373ffffffffffffffffffffffffffffffffffffffff16021790555060e0820151816007019080519060200190611ea0929190613c52565b509050507f807cc07179f4a5c23823cab6e41e49bfd0d66ab9891a7669cd7a3a014304db1e3387604051611ed5929190614a9c565b60405180910390a1505050505050565b336000600460008373ffffffffffffffffffffffffffffffffffffffff1673ffffffffffffffffffffffffffffffffffffffff1681526020019081526020016000209050600073ffffffffffffffffffffffffffffffffffffffff168160000160009054906101000a900473ffffffffffffffffffffffffffffffffffffffff1673ffffffffffffffffffffffffffffffffffffffff1611611fbc576040517f08c379a0000000000000000000000000000000000000000000000000000000008152600401611fb3906146c7565b60405180910390fd5b826000600360008373ffffffffffffffffffffffffffffffffffffffff1673ffffffffffffffffffffffffffffffffffffffff168152602001908152602001600020604051806101000160405290816000820160009054906101000a900473ffffffffffffffffffffffffffffffffffffffff1673ffffffffffffffffffffffffffffffffffffffff1673ffffffffffffffffffffffffffffffffffffffff16815260200160018201805461207090614716565b80601f016020809104026020016040519081016040528092919081815260200182805461209c90614716565b80156120e95780601f106120be576101008083540402835291602001916120e9565b820191906000526020600020905b8154815290600101906020018083116120cc57829003601f168201915b5050505050815260200160028201805461210290614716565b80601f016020809104026020016040519081016040528092919081815260200182805461212e90614716565b801561217b5780601f106121505761010080835404028352916020019161217b565b820191906000526020600020905b81548152906001019060200180831161215e57829003601f168201915b505050505081526020016003820154815260200160048201805461219e90614716565b80601f01602080910402602001604051908101604052809291908181526020018280546121ca90614716565b80156122175780601f106121ec57610100808354040283529160200191612217565b820191906000526020600020905b8154815290600101906020018083116121fa57829003601f168201915b5050505050815260200160058201805461223090614716565b80601f016020809104026020016040519081016040528092919081815260200182805461225c90614716565b80156122a95780601f1061227e576101008083540402835291602001916122a9565b820191906000526020600020905b81548152906001019060200180831161228c57829003601f168201915b505050505081526020016006820160009054906101000a900473ffffffffffffffffffffffffffffffffffffffff1673ffffffffffffffffffffffffffffffffffffffff1673ffffffffffffffffffffffffffffffffffffffff1681526020016007820180548060200260200160405190810160405280929190818152602001828054801561238d57602002820191906000526020600020905b8160009054906101000a900473ffffffffffffffffffffffffffffffffffffffff1673ffffffffffffffffffffffffffffffffffffffff1681526020019060010190808311612343575b5050505050815250509050600073ffffffffffffffffffffffffffffffffffffffff16816000015173ffffffffffffffffffffffffffffffffffffffff161161240b576040517f08c379a0000000000000000000000000000000000000000000000000000000008152600401612402906147b9565b60405180910390fd5b6000600760003373ffffffffffffffffffffffffffffffffffffffff1673ffffffffffffffffffffffffffffffffffffffff16815260200190815260200160002060008773ffffffffffffffffffffffffffffffffffffffff1673ffffffffffffffffffffffffffffffffffffffff16815260200190815260200160002054116124ca576040517f08c379a00000000000000000000000000000000000000000000000000000000081526004016124c190614b2b565b60405180910390fd5b6000600760003373ffffffffffffffffffffffffffffffffffffffff1673ffffffffffffffffffffffffffffffffffffffff16815260200190815260200160002060008773ffffffffffffffffffffffffffffffffffffffff1673ffffffffffffffffffffffffffffffffffffffff168152602001908152602001600020819055506000600660008773ffffffffffffffffffffffffffffffffffffffff1673ffffffffffffffffffffffffffffffffffffffff16815260200190815260200160002060003373ffffffffffffffffffffffffffffffffffffffff1673ffffffffffffffffffffffffffffffffffffffff168152602001908152602001600020819055505050505050565b336000600260008373ffffffffffffffffffffffffffffffffffffffff1673ffffffffffffffffffffffffffffffffffffffff1681526020019081526020016000209050600073ffffffffffffffffffffffffffffffffffffffff168160000160009054906101000a900473ffffffffffffffffffffffffffffffffffffffff1673ffffffffffffffffffffffffffffffffffffffff16116126ac576040517f08c379a00000000000000000000000000000000000000000000000000000000081526004016126a390614bbd565b60405180910390fd5b826000600360008373ffffffffffffffffffffffffffffffffffffffff1673ffffffffffffffffffffffffffffffffffffffff168152602001908152602001600020604051806101000160405290816000820160009054906101000a900473ffffffffffffffffffffffffffffffffffffffff1673ffffffffffffffffffffffffffffffffffffffff1673ffffffffffffffffffffffffffffffffffffffff16815260200160018201805461276090614716565b80601f016020809104026020016040519081016040528092919081815260200182805461278c90614716565b80156127d95780601f106127ae576101008083540402835291602001916127d9565b820191906000526020600020905b8154815290600101906020018083116127bc57829003601f168201915b505050505081526020016002820180546127f290614716565b80601f016020809104026020016040519081016040528092919081815260200182805461281e90614716565b801561286b5780601f106128405761010080835404028352916020019161286b565b820191906000526020600020905b81548152906001019060200180831161284e57829003601f168201915b505050505081526020016003820154815260200160048201805461288e90614716565b80601f01602080910402602001604051908101604052809291908181526020018280546128ba90614716565b80156129075780601f106128dc57610100808354040283529160200191612907565b820191906000526020600020905b8154815290600101906020018083116128ea57829003601f168201915b5050505050815260200160058201805461292090614716565b80601f016020809104026020016040519081016040528092919081815260200182805461294c90614716565b80156129995780601f1061296e57610100808354040283529160200191612999565b820191906000526020600020905b81548152906001019060200180831161297c57829003601f168201915b505050505081526020016006820160009054906101000a900473ffffffffffffffffffffffffffffffffffffffff1673ffffffffffffffffffffffffffffffffffffffff1673ffffffffffffffffffffffffffffffffffffffff16815260200160078201805480602002602001604051908101604052809291908181526020018280548015612a7d57602002820191906000526020600020905b8160009054906101000a900473ffffffffffffffffffffffffffffffffffffffff1673ffffffffffffffffffffffffffffffffffffffff1681526020019060010190808311612a33575b5050505050815250509050600073ffffffffffffffffffffffffffffffffffffffff16816000015173ffffffffffffffffffffffffffffffffffffffff1611612afb576040517f08c379a0000000000000000000000000000000000000000000000000000000008152600401612af2906147b9565b60405180910390fd5b33600360008773ffffffffffffffffffffffffffffffffffffffff1673ffffffffffffffffffffffffffffffffffffffff16815260200190815260200160002060060160006101000a81548173ffffffffffffffffffffffffffffffffffffffff021916908373ffffffffffffffffffffffffffffffffffffffff1602179055505050505050565b6000600460003373ffffffffffffffffffffffffffffffffffffffff1673ffffffffffffffffffffffffffffffffffffffff16815260200190815260200160002090507fc5d2460186f7233c927e7db2dcc703c0e500b653ca82273b7bfad8045d85a47087604051602001612bf891906148f8565b6040516020818303038152906040528051906020012003612c4e576040517f08c379a0000000000000000000000000000000000000000000000000000000008152600401612c4590614935565b60405180910390fd5b600073ffffffffffffffffffffffffffffffffffffffff168160000160009054906101000a900473ffffffffffffffffffffffffffffffffffffffff1673ffffffffffffffffffffffffffffffffffffffff161115612ce2576040517f08c379a0000000000000000000000000000000000000000000000000000000008152600401612cd9906149a1565b60405180910390fd5b6040518061010001604052803373ffffffffffffffffffffffffffffffffffffffff168152602001888152602001878152602001868152602001858152602001848152602001838152602001600067ffffffffffffffff811115612d4957612d486141a6565b5b604051908082528060200260200182016040528015612d775781602001602082028036833780820191505090505b50815250600460003373ffffffffffffffffffffffffffffffffffffffff1673ffffffffffffffffffffffffffffffffffffffff16815260200190815260200160002060008201518160000160006101000a81548173ffffffffffffffffffffffffffffffffffffffff021916908373ffffffffffffffffffffffffffffffffffffffff1602179055506020820151816001019080519060200190612e1d929190613bcc565b50604082015181600201556060820151816003019080519060200190612e44929190613bcc565b506080820151816004019080519060200190612e61929190613bcc565b5060a0820151816005019080519060200190612e7e929190613bcc565b5060c0820151816006019080519060200190612e9b929190613bcc565b5060e0820151816007019080519060200190612eb8929190613c52565b509050507f807cc07179f4a5c23823cab6e41e49bfd0d66ab9891a7669cd7a3a014304db1e3388604051612eed929190614c29565b60405180910390a150505050505050565b600060608060606000600460003373ffffffffffffffffffffffffffffffffffffffff1673ffffffffffffffffffffffffffffffffffffffff168152602001908152602001600020604051806101000160405290816000820160009054906101000a900473ffffffffffffffffffffffffffffffffffffffff1673ffffffffffffffffffffffffffffffffffffffff1673ffffffffffffffffffffffffffffffffffffffff168152602001600182018054612fb890614716565b80601f0160208091040260200160405190810160405280929190818152602001828054612fe490614716565b80156130315780601f1061300657610100808354040283529160200191613031565b820191906000526020600020905b81548152906001019060200180831161301457829003601f168201915b505050505081526020016002820154815260200160038201805461305490614716565b80601f016020809104026020016040519081016040528092919081815260200182805461308090614716565b80156130cd5780601f106130a2576101008083540402835291602001916130cd565b820191906000526020600020905b8154815290600101906020018083116130b057829003601f168201915b505050505081526020016004820180546130e690614716565b80601f016020809104026020016040519081016040528092919081815260200182805461311290614716565b801561315f5780601f106131345761010080835404028352916020019161315f565b820191906000526020600020905b81548152906001019060200180831161314257829003601f168201915b5050505050815260200160058201805461317890614716565b80601f01602080910402602001604051908101604052809291908181526020018280546131a490614716565b80156131f15780601f106131c6576101008083540402835291602001916131f1565b820191906000526020600020905b8154815290600101906020018083116131d457829003601f168201915b5050505050815260200160068201805461320a90614716565b80601f016020809104026020016040519081016040528092919081815260200182805461323690614716565b80156132835780601f1061325857610100808354040283529160200191613283565b820191906000526020600020905b81548152906001019060200180831161326657829003601f168201915b505050505081526020016007820180548060200260200160405190810160405280929190818152602001828054801561331157602002820191906000526020600020905b8160009054906101000a900473ffffffffffffffffffffffffffffffffffffffff1673ffffffffffffffffffffffffffffffffffffffff16815260200190600101908083116132c7575b50505050508152505090506000600260003373ffffffffffffffffffffffffffffffffffffffff1673ffffffffffffffffffffffffffffffffffffffff1681526020019081526020016000206040518060c00160405290816000820160009054906101000a900473ffffffffffffffffffffffffffffffffffffffff1673ffffffffffffffffffffffffffffffffffffffff1673ffffffffffffffffffffffffffffffffffffffff1681526020016001820180546133ce90614716565b80601f01602080910402602001604051908101604052809291908181526020018280546133fa90614716565b80156134475780601f1061341c57610100808354040283529160200191613447565b820191906000526020600020905b81548152906001019060200180831161342a57829003601f168201915b5050505050815260200160028201805461346090614716565b80601f016020809104026020016040519081016040528092919081815260200182805461348c90614716565b80156134d95780601f106134ae576101008083540402835291602001916134d9565b820191906000526020600020905b8154815290600101906020018083116134bc57829003601f168201915b50505050508152602001600382015481526020016004820180546134fc90614716565b80601f016020809104026020016040519081016040528092919081815260200182805461352890614716565b80156135755780601f1061354a57610100808354040283529160200191613575565b820191906000526020600020905b81548152906001019060200180831161355857829003601f168201915b5050505050815260200160058201805461358e90614716565b80601f01602080910402602001604051908101604052809291908181526020018280546135ba90614716565b80156136075780601f106135dc57610100808354040283529160200191613607565b820191906000526020600020905b8154815290600101906020018083116135ea57829003601f168201915b50505050508152505090506000600360003373ffffffffffffffffffffffffffffffffffffffff1673ffffffffffffffffffffffffffffffffffffffff168152602001908152602001600020604051806101000160405290816000820160009054906101000a900473ffffffffffffffffffffffffffffffffffffffff1673ffffffffffffffffffffffffffffffffffffffff1673ffffffffffffffffffffffffffffffffffffffff1681526020016001820180546136c590614716565b80601f01602080910402602001604051908101604052809291908181526020018280546136f190614716565b801561373e5780601f106137135761010080835404028352916020019161373e565b820191906000526020600020905b81548152906001019060200180831161372157829003601f168201915b5050505050815260200160028201805461375790614716565b80601f016020809104026020016040519081016040528092919081815260200182805461378390614716565b80156137d05780601f106137a5576101008083540402835291602001916137d0565b820191906000526020600020905b8154815290600101906020018083116137b357829003601f168201915b50505050508152602001600382015481526020016004820180546137f390614716565b80601f016020809104026020016040519081016040528092919081815260200182805461381f90614716565b801561386c5780601f106138415761010080835404028352916020019161386c565b820191906000526020600020905b81548152906001019060200180831161384f57829003601f168201915b5050505050815260200160058201805461388590614716565b80601f01602080910402602001604051908101604052809291908181526020018280546138b190614716565b80156138fe5780601f106138d3576101008083540402835291602001916138fe565b820191906000526020600020905b8154815290600101906020018083116138e157829003601f168201915b505050505081526020016006820160009054906101000a900473ffffffffffffffffffffffffffffffffffffffff1673ffffffffffffffffffffffffffffffffffffffff1673ffffffffffffffffffffffffffffffffffffffff168152602001600782018054806020026020016040519081016040528092919081815260200182805480156139e257602002820191906000526020600020905b8160009054906101000a900473ffffffffffffffffffffffffffffffffffffffff1673ffffffffffffffffffffffffffffffffffffffff1681526020019060010190808311613998575b5050505050815250509050600073ffffffffffffffffffffffffffffffffffffffff16836000015173ffffffffffffffffffffffffffffffffffffffff161115613a775733836020015184606001516040518060400160405280600781526020017f50617469656e74000000000000000000000000000000000000000000000000008152509650965096509650505050613bc6565b600073ffffffffffffffffffffffffffffffffffffffff16826000015173ffffffffffffffffffffffffffffffffffffffff161115613b015733826020015183604001516040518060400160405280600881526020017f486f73706974616c0000000000000000000000000000000000000000000000008152509650965096509650505050613bc6565b600073ffffffffffffffffffffffffffffffffffffffff16816000015173ffffffffffffffffffffffffffffffffffffffff161115613b8b5733816020015182604001516040518060400160405280600681526020017f446f63746f7200000000000000000000000000000000000000000000000000008152509650965096509650505050613bc6565b6040517f08c379a0000000000000000000000000000000000000000000000000000000008152600401613bbd90614cb8565b60405180910390fd5b90919293565b828054613bd890614716565b90600052602060002090601f016020900481019282613bfa5760008555613c41565b82601f10613c1357805160ff1916838001178555613c41565b82800160010185558215613c41579182015b82811115613c40578251825591602001919060010190613c25565b5b509050613c4e9190613cdc565b5090565b828054828255906000526020600020908101928215613ccb579160200282015b82811115613cca5782518260006101000a81548173ffffffffffffffffffffffffffffffffffffffff021916908373ffffffffffffffffffffffffffffffffffffffff16021790555091602001919060010190613c72565b5b509050613cd89190613cdc565b5090565b5b80821115613cf5576000816000905550600101613cdd565b5090565b600081519050919050565b600082825260208201905092915050565b60005b83811015613d33578082015181840152602081019050613d18565b83811115613d42576000848401525b50505050565b6000601f19601f8301169050919050565b6000613d6482613cf9565b613d6e8185613d04565b9350613d7e818560208601613d15565b613d8781613d48565b840191505092915050565b600081519050919050565b600082825260208201905092915050565b6000819050602082019050919050565b6000819050919050565b613dd181613dbe565b82525050565b600082825260208201905092915050565b6000613df382613cf9565b613dfd8185613dd7565b9350613e0d818560208601613d15565b613e1681613d48565b840191505092915050565b600073ffffffffffffffffffffffffffffffffffffffff82169050919050565b6000613e4c82613e21565b9050919050565b613e5c81613e41565b82525050565b600081519050919050565b600082825260208201905092915050565b6000819050602082019050919050565b6000613e9a8383613e53565b60208301905092915050565b6000602082019050919050565b6000613ebe82613e62565b613ec88185613e6d565b9350613ed383613e7e565b8060005b83811015613f04578151613eeb8882613e8e565b9750613ef683613ea6565b925050600181019050613ed7565b5085935050505092915050565b600061016083016000830151613f2a6000860182613dc8565b5060208301518482036020860152613f428282613de8565b9150506040830151613f576040860182613e53565b506060830151613f6a6060860182613e53565b506080830151613f7d6080860182613dc8565b5060a083015184820360a0860152613f958282613de8565b91505060c0830151613faa60c0860182613dc8565b5060e0830151613fbd60e0860182613dc8565b50610100830151613fd2610100860182613dc8565b50610120830151613fe7610120860182613dc8565b506101408301518482036101408601526140018282613eb3565b9150508091505092915050565b600061401a8383613f11565b905092915050565b6000602082019050919050565b600061403a82613d92565b6140448185613d9d565b93508360208202850161405685613dae565b8060005b858110156140925784840389528151614073858261400e565b945061407e83614022565b925060208a0199505060018101905061405a565b50829750879550505050505092915050565b600060c08201905081810360008301526140be8189613d59565b905081810360208301526140d28188613d59565b905081810360408301526140e68187613d59565b905081810360608301526140fa8186613d59565b9050818103608083015261410e8185613d59565b905081810360a0830152614122818461402f565b9050979650505050505050565b6000604051905090565b600080fd5b600080fd5b61414c81613e41565b811461415757600080fd5b50565b60008135905061416981614143565b92915050565b60006020828403121561418557614184614139565b5b60006141938482850161415a565b91505092915050565b600080fd5b600080fd5b7f4e487b7100000000000000000000000000000000000000000000000000000000600052604160045260246000fd5b6141de82613d48565b810181811067ffffffffffffffff821117156141fd576141fc6141a6565b5b80604052505050565b600061421061412f565b905061421c82826141d5565b919050565b600067ffffffffffffffff82111561423c5761423b6141a6565b5b61424582613d48565b9050602081019050919050565b82818337600083830152505050565b600061427461426f84614221565b614206565b9050828152602081018484840111156142905761428f6141a1565b5b61429b848285614252565b509392505050565b600082601f8301126142b8576142b761419c565b5b81356142c8848260208601614261565b91505092915050565b6142da81613dbe565b81146142e557600080fd5b50565b6000813590506142f7816142d1565b92915050565b600080600080600060a0868803121561431957614318614139565b5b600086013567ffffffffffffffff8111156143375761433661413e565b5b614343888289016142a3565b955050602086013567ffffffffffffffff8111156143645761436361413e565b5b614370888289016142a3565b945050604086013567ffffffffffffffff8111156143915761439061413e565b5b61439d888289016142a3565b93505060606143ae888289016142e8565b925050608086013567ffffffffffffffff8111156143cf576143ce61413e565b5b6143db888289016142a3565b9150509295509295909350565b600080600080600060a0868803121561440457614403614139565b5b600086013567ffffffffffffffff8111156144225761442161413e565b5b61442e888289016142a3565b955050602086013567ffffffffffffffff81111561444f5761444e61413e565b5b61445b888289016142a3565b945050604061446c888289016142e8565b935050606086013567ffffffffffffffff81111561448d5761448c61413e565b5b614499888289016142a3565b925050608086013567ffffffffffffffff8111156144ba576144b961413e565b5b6144c6888289016142a3565b9150509295509295909350565b60008060008060008060c087890312156144f0576144ef614139565b5b600087013567ffffffffffffffff81111561450e5761450d61413e565b5b61451a89828a016142a3565b965050602061452b89828a016142e8565b955050604087013567ffffffffffffffff81111561454c5761454b61413e565b5b61455889828a016142a3565b945050606087013567ffffffffffffffff8111156145795761457861413e565b5b61458589828a016142a3565b935050608087013567ffffffffffffffff8111156145a6576145a561413e565b5b6145b289828a016142a3565b92505060a087013567ffffffffffffffff8111156145d3576145d261413e565b5b6145df89828a016142a3565b9150509295509295509295565b6145f581613e41565b82525050565b600060808201905061461060008301876145ec565b81810360208301526146228186613d59565b905081810360408301526146368185613d59565b9050818103606083015261464a8184613d59565b905095945050505050565b7f50617469656e74204e6f7420466f756e64206f72204163636573732044656e6960008201527f6564000000000000000000000000000000000000000000000000000000000000602082015250565b60006146b1602283613d04565b91506146bc82614655565b604082019050919050565b600060208201905081810360008301526146e0816146a4565b9050919050565b7f4e487b7100000000000000000000000000000000000000000000000000000000600052602260045260246000fd5b6000600282049050600182168061472e57607f821691505b602082108103614741576147406146e7565b5b50919050565b7f446f63746f72204e6f7420466f756e64206f72204163636573732044656e696560008201527f6400000000000000000000000000000000000000000000000000000000000000602082015250565b60006147a3602183613d04565b91506147ae82614747565b604082019050919050565b600060208201905081810360008301526147d281614796565b9050919050565b7f5468697320446f63746f7220697320616c72656164792061737369676e656400600082015250565b600061480f601f83613d04565b915061481a826147d9565b602082019050919050565b6000602082019050818103600083015261483e81614802565b9050919050565b7f4e487b7100000000000000000000000000000000000000000000000000000000600052601160045260246000fd5b600061487f82613dbe565b91507fffffffffffffffffffffffffffffffffffffffffffffffffffffffffffffffff82036148b1576148b0614845565b5b600182019050919050565b600081905092915050565b60006148d282613cf9565b6148dc81856148bc565b93506148ec818560208601613d15565b80840191505092915050565b600061490482846148c7565b915081905092915050565b50565b600061491f600083613d04565b915061492a8261490f565b600082019050919050565b6000602082019050818103600083015261494e81614912565b9050919050565b7f4163636f756e7420616c72656164792070726573656e74000000000000000000600082015250565b600061498b601783613d04565b915061499682614955565b602082019050919050565b600060208201905081810360008301526149ba8161497e565b9050919050565b7f486f73706974616c000000000000000000000000000000000000000000000000600082015250565b60006149f7600883613d04565b9150614a02826149c1565b602082019050919050565b6000606082019050614a2260008301856145ec565b8181036020830152614a348184613d59565b90508181036040830152614a47816149ea565b90509392505050565b7f446f63746f720000000000000000000000000000000000000000000000000000600082015250565b6000614a86600683613d04565b9150614a9182614a50565b602082019050919050565b6000606082019050614ab160008301856145ec565b8181036020830152614ac38184613d59565b90508181036040830152614ad681614a79565b90509392505050565b7f5468697320446f63746f72206973206e6f742061737369676e65640000000000600082015250565b6000614b15601b83613d04565b9150614b2082614adf565b602082019050919050565b60006020820190508181036000830152614b4481614b08565b9050919050565b7f486f73706974616c204e6f7420466f756e64206f72204163636573732044656e60008201527f6965640000000000000000000000000000000000000000000000000000000000602082015250565b6000614ba7602383613d04565b9150614bb282614b4b565b604082019050919050565b60006020820190508181036000830152614bd681614b9a565b9050919050565b7f50617469656e7400000000000000000000000000000000000000000000000000600082015250565b6000614c13600783613d04565b9150614c1e82614bdd565b602082019050919050565b6000606082019050614c3e60008301856145ec565b8181036020830152614c508184613d59565b90508181036040830152614c6381614c06565b90509392505050565b7f4e4f204163636f756e7420666f756e6400000000000000000000000000000000600082015250565b6000614ca2601083613d04565b9150614cad82614c6c565b602082019050919050565b60006020820190508181036000830152614cd181614c95565b905091905056fea2646970667358221220c30134e3053f9078efdd44d262170661b36a314881bc4f0887a08cf3a793ffc464736f6c634300080d0033",
  "immutableReferences": {},
  "source": "// SPDX-License-Identifier: MIT\npragma solidity >=0.4.25 <0.9.0;\n\ncontract HealthCare {\n    address private owner;\n    uint private reportCount=0;\n\n    struct Hospital {\n        address id;\n        string name;\n        string email;\n        uint phone;\n        string description;\n        string location;\n    }\n\n    struct Doctor {\n        address id;\n        string name;\n        string email;\n        uint phone;\n        string type_name;\n        string location;\n        address hospital;\n        address[] patient_list;\n    }\n\n    struct Patient {\n        address id;\n        string name;\n        uint phone;\n        string email;\n        string dob;\n        string bloodGroup;\n        string permanentAddress;\n        address[] doctor_list;\n        // uint score;\n        // Analysis[] history;\n    }\n\n    struct Analysis {\n        uint256 ID;\n        string testName;\n        address hospital;\n        address doctor;\n        uint256 price;\n        string date;\n        uint256 value;\n        uint256 min;\n        uint256 max;\n        uint256 weight;\n        address[] signatures;\n    }\n\n    mapping(address => Hospital) private hospitals;\n    mapping(address => Doctor) private doctors;\n    mapping(address => Patient) private patients;\n    mapping(address => Analysis[]) reports;\n\n    mapping(address => mapping(address => uint256)) private doctorToPatient; // doctors to patient list\n    mapping(address => mapping(address => uint256)) private patientToDoctor;\n\n    constructor() {\n        owner = msg.sender;\n    }\n\n    modifier checkDoctor(address id) {\n        Doctor memory d = doctors[id];\n        require(d.id > address(0x0), \"Doctor Not Found or Access Denied\");\n        _;\n    }\n\n    modifier checkPatient(address id) {\n        Patient storage p = patients[id];\n        require(p.id > address(0x0), \"Patient Not Found or Access Denied\");\n        _;\n    }\n\n    modifier checkHospital(address id) {\n        Hospital storage h = hospitals[id];\n        require(h.id > address(0x0), \"Hospital Not Found or Access Denied\");\n        _;\n    }\n\n    modifier checkDoctorOrHospital(address id) {\n        Hospital memory h = hospitals[msg.sender];\n        Doctor memory d = doctors[msg.sender];\n        require(\n            h.id > address(0x0) || d.id > address(0x0),\n            \"User not found or Access Denied\"\n        );\n        _;\n    }\n\n    event Signup(address add, string name, string role);\n\n    // -------------------------------------------------------------------------------\n    //  Patient\n    // -------------------------------------------------------------------------------\n\n    function addPatient(\n        string memory _name,\n        uint _phone,\n        string memory _email,\n        string memory _dob,\n        string memory _bloodGroup,\n        string memory _permanentAddress\n    ) public {\n        Patient storage p = patients[msg.sender];\n        require(keccak256(abi.encodePacked(_name)) != keccak256(\"\"), \"\");\n        require(!(p.id > address(0x0)), \"Account already present\");\n        patients[msg.sender] = Patient({\n            id: msg.sender,\n            name: _name,\n            phone: _phone,\n            email: _email,\n            dob: _dob,\n            bloodGroup: _bloodGroup,\n            permanentAddress: _permanentAddress,\n            doctor_list: new address[](0)\n        });\n        emit Signup(msg.sender, _name, \"Patient\");\n    }\n\n    // function getPatientInfo(\n    //     address pAddress\n    // )\n    //     public\n    //     view\n    //     checkDoctorOrHospital(msg.sender)\n    //     checkPatient(pAddress)\n    //     returns (\n    //         string memory name,\n    //         string memory email,\n    //         uint phone,\n    //         Analysis[] memory results,\n    //         address[] memory doctor_list\n    //     )\n    // {\n    //     Patient memory p = patients[pAddress];\n    //     return (p.name, p.email, p.phone, reports[msg.sender], p.doctor_list);\n    // }\n\n    function getPatientProfile()\n        public\n        view\n        checkPatient(msg.sender)\n        returns (\n            string memory name,\n            string memory email,\n            string memory dob,\n            string memory bloodGroup,\n            string memory permanentAddress,\n            Analysis[] memory history\n        )\n    {\n        Patient memory p = patients[msg.sender];\n        return (\n            p.name,\n            p.email,\n            p.dob,\n            p.bloodGroup,\n            p.permanentAddress,\n            reports[msg.sender]\n        );\n    }\n\n    function grantAccessToDoctor(\n        address doctor_id\n    ) public checkPatient(msg.sender) checkDoctor(doctor_id) {\n        Patient storage p = patients[msg.sender];\n        Doctor storage d = doctors[doctor_id];\n        require(\n            patientToDoctor[msg.sender][doctor_id] < 1,\n            \"This Doctor is already assigned\"\n        );\n\n        p.doctor_list.push(doctor_id);\n        patientToDoctor[msg.sender][doctor_id]++;\n        doctorToPatient[doctor_id][msg.sender]++;\n        d.patient_list.push(msg.sender);\n    }\n\n    function removeAccessFromDoctor(\n        address doctor_id\n    ) public checkPatient(msg.sender) checkDoctor(doctor_id) {\n        require(\n            patientToDoctor[msg.sender][doctor_id] > 0,\n            \"This Doctor is not assigned\"\n        );\n        patientToDoctor[msg.sender][doctor_id] = 0;\n        doctorToPatient[doctor_id][msg.sender] = 0;\n    }\n\n    // -------------------------------------------------------------------------------\n    //  Doctor\n    // -------------------------------------------------------------------------------\n\n    function addDoctor(\n        string memory _name,\n        string memory email,\n        uint phone,\n        string memory _type_name,\n        string memory _location\n    ) public {\n        Doctor memory d = doctors[msg.sender];\n        require(keccak256(abi.encodePacked(_name)) != keccak256(\"\"), \"\");\n        require(!(d.id > address(0x0)), \"Account already present\");\n        doctors[msg.sender] = Doctor({\n            id: msg.sender,\n            name: _name,\n            email: email,\n            phone: phone,\n            type_name: _type_name,\n            location: _location,\n            hospital: address(0x0),\n            patient_list: new address[](0)\n        });\n        emit Signup(msg.sender, _name, \"Doctor\");\n    }\n\n    // function addAnalysis(\n    //     address pat,\n    //     string memory testName,\n    //     address hospital,\n    //     uint price,\n    //     string memory date,\n    //     uint value,\n    //     uint min,\n    //     uint max,\n    //     uint weight\n    // ) public checkDoctor(msg.sender) {\n    //     Doctor memory d = doctors[msg.sender];\n    //     require(d.hospital == hospital, \"Invalid Hospital\");\n    //     require(\n    //         patientToDoctor[pat][msg.sender] > 0,\n    //         \"Doctor is not assigned to Patient\"\n    //     );\n    //     address[] memory sign = new address[](1);\n    //     sign[0] = msg.sender;\n    //     reports[pat].push(\n    //         Analysis({\n    //             ID: reportCount,\n    //             testName: testName,\n    //             hospital: hospital,\n    //             doctor: msg.sender,\n    //             price: price,\n    //             date: date,\n    //             value: value,\n    //             min: min,\n    //             max: max,\n    //             weight: weight,\n    //             signatures: sign\n    //         })\n    //     );\n    //     reportCount++;\n    // }\n\n    // function addSignature(address pat, uint id) public checkDoctor(msg.sender) {\n    //     require(\n    //         patientToDoctor[pat][msg.sender] > 0,\n    //         \"Doctor is not assigned to Patient\"\n    //     );\n    //     reports[pat][id].signatures.push(msg.sender);\n    // }\n\n    // -------------------------------------------------------------------------------\n    //  Hospital\n    // -------------------------------------------------------------------------------\n\n    function addHospital(\n        string memory name,\n        string memory descr,\n        string memory location,\n        uint _phone,\n        string memory _email\n    ) public {\n        Hospital memory h = hospitals[msg.sender];\n        require(keccak256(abi.encodePacked(name)) != keccak256(\"\"), \"\");\n        require(!(h.id > address(0x0)), \"Account already present\");\n        hospitals[msg.sender] = Hospital(\n            msg.sender,\n            name,\n            _email,\n            _phone,\n            descr,\n            location\n        );\n        emit Signup(msg.sender, name, \"Hospital\");\n    }\n\n    function assignHostpitalToDoctor(\n        address doc\n    ) public checkHospital(msg.sender) checkDoctor(doc) {\n        doctors[doc].hospital = msg.sender;\n    }\n\n    // -------------------------------------------------------------------------------\n    //  Public functions\n    // -------------------------------------------------------------------------------\n\n    function Login()\n        public\n        view\n        returns (\n            address id,\n            string memory name,\n            string memory email,\n            string memory role\n        )\n    {\n        Patient memory p = patients[msg.sender];\n        Hospital memory h = hospitals[msg.sender];\n        Doctor memory d = doctors[msg.sender];\n        if (p.id > address(0x0)) {\n            return (msg.sender, p.name, p.email, \"Patient\");\n        } else if (h.id > address(0x0)) {\n            return (msg.sender, h.name, h.email, \"Hospital\");\n        } else if (d.id > (address(0x0))) {\n            return (msg.sender, d.name, d.email, \"Doctor\");\n        }\n        revert(\"NO Account found\");\n    }\n\n    // function getDoctorInfo(\n    //     address dAddress\n    // )\n    //     public\n    //     view\n    //     checkDoctor(dAddress)\n    //     returns (\n    //         string memory name,\n    //         string memory email,\n    //         uint phone,\n    //         address hospital\n    //     )\n    // {\n    //     Doctor memory d = doctors[dAddress];\n    //     return (d.name, d.email, d.phone, d.hospital);\n    // }\n}\n",
  "sourcePath": "/home/gulshan/Desktop/projects/web3/hp/src/contracts/HealthCare.sol",
  "compiler": {
    "name": "solc",
    "version": "0.8.13+commit.abaa5c0e.Emscripten.clang"
  },
  "schemaVersion": "3.4.10",
  "updatedAt": "2022-12-07T09:59:01.540Z",
  "networkType": "ethereum",
  "devdoc": {
    "kind": "dev",
    "methods": {},
    "version": 1
  },
  "userdoc": {
    "kind": "user",
    "methods": {},
    "version": 1
  }
}