{
  "contractName": "HealthCare",
  "abi": [
    {
      "inputs": [],
      "stateMutability": "nonpayable",
      "type": "constructor"
    },
    {
      "anonymous": false,
      "inputs": [
        {
          "indexed": false,
          "internalType": "address",
          "name": "add",
          "type": "address"
        },
        {
          "indexed": false,
          "internalType": "string",
          "name": "name",
          "type": "string"
        },
        {
          "indexed": false,
          "internalType": "string",
          "name": "role",
          "type": "string"
        }
      ],
      "name": "Signup",
      "type": "event"
    },
    {
      "inputs": [
        {
          "internalType": "string",
          "name": "_name",
          "type": "string"
        },
        {
          "internalType": "uint256",
          "name": "_phone",
          "type": "uint256"
        },
        {
          "internalType": "string",
          "name": "_email",
          "type": "string"
        },
        {
          "internalType": "string",
          "name": "_dob",
          "type": "string"
        },
        {
          "internalType": "string",
          "name": "_bloodGroup",
          "type": "string"
        },
        {
          "internalType": "string",
          "name": "_permanentAddress",
          "type": "string"
        },
        {
          "internalType": "string",
          "name": "_gender",
          "type": "string"
        }
      ],
      "name": "addPatient",
      "outputs": [],
      "stateMutability": "nonpayable",
      "type": "function"
    },
    {
      "inputs": [],
      "name": "getPatientProfile",
      "outputs": [
        {
          "internalType": "string",
          "name": "name",
          "type": "string"
        },
        {
          "internalType": "string",
          "name": "email",
          "type": "string"
        },
        {
          "internalType": "string",
          "name": "dob",
          "type": "string"
        },
        {
          "internalType": "string",
          "name": "bloodGroup",
          "type": "string"
        },
        {
          "internalType": "string",
          "name": "permanentAddress",
          "type": "string"
        },
        {
          "components": [
            {
              "internalType": "uint256",
              "name": "ID",
              "type": "uint256"
            },
            {
              "internalType": "string",
              "name": "testName",
              "type": "string"
            },
            {
              "internalType": "address",
              "name": "hospital",
              "type": "address"
            },
            {
              "internalType": "address",
              "name": "doctor",
              "type": "address"
            },
            {
              "internalType": "uint256",
              "name": "price",
              "type": "uint256"
            },
            {
              "internalType": "string",
              "name": "date",
              "type": "string"
            },
            {
              "internalType": "uint256",
              "name": "value",
              "type": "uint256"
            },
            {
              "internalType": "uint256",
              "name": "min",
              "type": "uint256"
            },
            {
              "internalType": "uint256",
              "name": "max",
              "type": "uint256"
            },
            {
              "internalType": "uint256",
              "name": "weight",
              "type": "uint256"
            },
            {
              "internalType": "address[]",
              "name": "signatures",
              "type": "address[]"
            }
          ],
          "internalType": "struct HealthCare.Analysis[]",
          "name": "history",
          "type": "tuple[]"
        }
      ],
      "stateMutability": "view",
      "type": "function",
      "constant": true
    },
    {
      "inputs": [
        {
          "internalType": "address",
          "name": "doctor_id",
          "type": "address"
        }
      ],
      "name": "grantAccessToDoctor",
      "outputs": [],
      "stateMutability": "nonpayable",
      "type": "function"
    },
    {
      "inputs": [
        {
          "internalType": "string",
          "name": "_name",
          "type": "string"
        },
        {
          "internalType": "string",
          "name": "email",
          "type": "string"
        },
        {
          "internalType": "uint256",
          "name": "phone",
          "type": "uint256"
        },
        {
          "internalType": "string",
          "name": "_type_name",
          "type": "string"
        },
        {
          "internalType": "string",
          "name": "_location",
          "type": "string"
        },
        {
          "internalType": "string",
          "name": "_gender",
          "type": "string"
        }
      ],
      "name": "addDoctor",
      "outputs": [],
      "stateMutability": "nonpayable",
      "type": "function"
    },
    {
      "inputs": [],
      "name": "getDoctorProfile",
      "outputs": [
        {
          "components": [
            {
              "internalType": "address",
              "name": "id",
              "type": "address"
            },
            {
              "internalType": "string",
              "name": "name",
              "type": "string"
            },
            {
              "internalType": "string",
              "name": "email",
              "type": "string"
            },
            {
              "internalType": "string",
              "name": "gender",
              "type": "string"
            },
            {
              "internalType": "uint256",
              "name": "phone",
              "type": "uint256"
            },
            {
              "internalType": "string",
              "name": "type_name",
              "type": "string"
            },
            {
              "internalType": "string",
              "name": "location",
              "type": "string"
            },
            {
              "internalType": "address",
              "name": "hospital",
              "type": "address"
            },
            {
              "internalType": "address[]",
              "name": "patient_list",
              "type": "address[]"
            }
          ],
          "internalType": "struct HealthCare.Doctor",
          "name": "",
          "type": "tuple"
        }
      ],
      "stateMutability": "view",
      "type": "function",
      "constant": true
    },
    {
      "inputs": [
        {
          "internalType": "string",
          "name": "name",
          "type": "string"
        },
        {
          "internalType": "string",
          "name": "descr",
          "type": "string"
        },
        {
          "internalType": "string",
          "name": "location",
          "type": "string"
        },
        {
          "internalType": "uint256",
          "name": "_phone",
          "type": "uint256"
        },
        {
          "internalType": "string",
          "name": "_email",
          "type": "string"
        }
      ],
      "name": "addHospital",
      "outputs": [],
      "stateMutability": "nonpayable",
      "type": "function"
    },
    {
      "inputs": [
        {
          "internalType": "address",
          "name": "doc",
          "type": "address"
        }
      ],
      "name": "assignHostpitalToDoctor",
      "outputs": [],
      "stateMutability": "nonpayable",
      "type": "function"
    },
    {
      "inputs": [],
      "name": "Login",
      "outputs": [
        {
          "internalType": "address",
          "name": "id",
          "type": "address"
        },
        {
          "internalType": "string",
          "name": "name",
          "type": "string"
        },
        {
          "internalType": "string",
          "name": "email",
          "type": "string"
        },
        {
          "internalType": "string",
          "name": "role",
          "type": "string"
        }
      ],
      "stateMutability": "view",
      "type": "function",
      "constant": true
    }
  ],
  "bytecode": "0x6080604052600060015534801561001557600080fd5b50336000806101000a81548173ffffffffffffffffffffffffffffffffffffffff021916908373ffffffffffffffffffffffffffffffffffffffff160217905550615ad080620000666000396000f3fe608060405234801561001057600080fd5b50600436106100885760003560e01c8063934877131161005b5780639348771314610104578063cd1f168e14610122578063f00ac1da1461013e578063fe4c2ae21461015f57610088565b80631644f4401461008d57806318a63961146100b05780631c8e251c146100cc5780631d79e363146100e8575b600080fd5b61009561017b565b6040516100a796959493929190614d69565b60405180910390f35b6100ca60048036038101906100c59190614f69565b610a67565b005b6100e660048036038101906100e191906150df565b61124a565b005b61010260048036038101906100fd919061510c565b611b3e565b005b61010c61226b565b60405161011991906152df565b60405180910390f35b61013c600480360381019061013791906150df565b612bc4565b005b610146613204565b6040516101569493929190615310565b60405180910390f35b6101796004803603810190610174919061536a565b613ff6565b005b606080606080606080336000600460008373ffffffffffffffffffffffffffffffffffffffff1673ffffffffffffffffffffffffffffffffffffffff1681526020019081526020016000209050600073ffffffffffffffffffffffffffffffffffffffff168160000160009054906101000a900473ffffffffffffffffffffffffffffffffffffffff1673ffffffffffffffffffffffffffffffffffffffff161161025b576040517f08c379a0000000000000000000000000000000000000000000000000000000008152600401610252906154f5565b60405180910390fd5b6000600460003373ffffffffffffffffffffffffffffffffffffffff1673ffffffffffffffffffffffffffffffffffffffff168152602001908152602001600020604051806101200160405290816000820160009054906101000a900473ffffffffffffffffffffffffffffffffffffffff1673ffffffffffffffffffffffffffffffffffffffff1673ffffffffffffffffffffffffffffffffffffffff16815260200160018201805461030e90615544565b80601f016020809104026020016040519081016040528092919081815260200182805461033a90615544565b80156103875780601f1061035c57610100808354040283529160200191610387565b820191906000526020600020905b81548152906001019060200180831161036a57829003601f168201915b50505050508152602001600282015481526020016003820180546103aa90615544565b80601f01602080910402602001604051908101604052809291908181526020018280546103d690615544565b80156104235780601f106103f857610100808354040283529160200191610423565b820191906000526020600020905b81548152906001019060200180831161040657829003601f168201915b5050505050815260200160048201805461043c90615544565b80601f016020809104026020016040519081016040528092919081815260200182805461046890615544565b80156104b55780601f1061048a576101008083540402835291602001916104b5565b820191906000526020600020905b81548152906001019060200180831161049857829003601f168201915b505050505081526020016005820180546104ce90615544565b80601f01602080910402602001604051908101604052809291908181526020018280546104fa90615544565b80156105475780601f1061051c57610100808354040283529160200191610547565b820191906000526020600020905b81548152906001019060200180831161052a57829003601f168201915b5050505050815260200160068201805461056090615544565b80601f016020809104026020016040519081016040528092919081815260200182805461058c90615544565b80156105d95780601f106105ae576101008083540402835291602001916105d9565b820191906000526020600020905b8154815290600101906020018083116105bc57829003601f168201915b505050505081526020016007820180546105f290615544565b80601f016020809104026020016040519081016040528092919081815260200182805461061e90615544565b801561066b5780601f106106405761010080835404028352916020019161066b565b820191906000526020600020905b81548152906001019060200180831161064e57829003601f168201915b50505050508152602001600882018054806020026020016040519081016040528092919081815260200182805480156106f957602002820191906000526020600020905b8160009054906101000a900473ffffffffffffffffffffffffffffffffffffffff1673ffffffffffffffffffffffffffffffffffffffff16815260200190600101908083116106af575b5050505050815250509050806020015181606001518260a001518360c001518460e00151600560003373ffffffffffffffffffffffffffffffffffffffff1673ffffffffffffffffffffffffffffffffffffffff16815260200190815260200160002080805480602002602001604051908101604052809291908181526020016000905b82821015610a4a57838290600052602060002090600b020160405180610160016040529081600082015481526020016001820180546107bb90615544565b80601f01602080910402602001604051908101604052809291908181526020018280546107e790615544565b80156108345780601f1061080957610100808354040283529160200191610834565b820191906000526020600020905b81548152906001019060200180831161081757829003601f168201915b505050505081526020016002820160009054906101000a900473ffffffffffffffffffffffffffffffffffffffff1673ffffffffffffffffffffffffffffffffffffffff1673ffffffffffffffffffffffffffffffffffffffff1681526020016003820160009054906101000a900473ffffffffffffffffffffffffffffffffffffffff1673ffffffffffffffffffffffffffffffffffffffff1673ffffffffffffffffffffffffffffffffffffffff1681526020016004820154815260200160058201805461090390615544565b80601f016020809104026020016040519081016040528092919081815260200182805461092f90615544565b801561097c5780601f106109515761010080835404028352916020019161097c565b820191906000526020600020905b81548152906001019060200180831161095f57829003601f168201915b5050505050815260200160068201548152602001600782015481526020016008820154815260200160098201548152602001600a8201805480602002602001604051908101604052809291908181526020018280548015610a3257602002820191906000526020600020905b8160009054906101000a900473ffffffffffffffffffffffffffffffffffffffff1673ffffffffffffffffffffffffffffffffffffffff16815260200190600101908083116109e8575b5050505050815250508152602001906001019061077d565b505050509050985098509850985098509850505050909192939495565b6000600460003373ffffffffffffffffffffffffffffffffffffffff1673ffffffffffffffffffffffffffffffffffffffff16815260200190815260200160002090506000600360003373ffffffffffffffffffffffffffffffffffffffff1673ffffffffffffffffffffffffffffffffffffffff16815260200190815260200160002090506000600260003373ffffffffffffffffffffffffffffffffffffffff1673ffffffffffffffffffffffffffffffffffffffff1681526020019081526020016000206040518060c00160405290816000820160009054906101000a900473ffffffffffffffffffffffffffffffffffffffff1673ffffffffffffffffffffffffffffffffffffffff1673ffffffffffffffffffffffffffffffffffffffff168152602001600182018054610b9f90615544565b80601f0160208091040260200160405190810160405280929190818152602001828054610bcb90615544565b8015610c185780601f10610bed57610100808354040283529160200191610c18565b820191906000526020600020905b815481529060010190602001808311610bfb57829003601f168201915b50505050508152602001600282018054610c3190615544565b80601f0160208091040260200160405190810160405280929190818152602001828054610c5d90615544565b8015610caa5780601f10610c7f57610100808354040283529160200191610caa565b820191906000526020600020905b815481529060010190602001808311610c8d57829003601f168201915b5050505050815260200160038201548152602001600482018054610ccd90615544565b80601f0160208091040260200160405190810160405280929190818152602001828054610cf990615544565b8015610d465780601f10610d1b57610100808354040283529160200191610d46565b820191906000526020600020905b815481529060010190602001808311610d2957829003601f168201915b50505050508152602001600582018054610d5f90615544565b80601f0160208091040260200160405190810160405280929190818152602001828054610d8b90615544565b8015610dd85780601f10610dad57610100808354040283529160200191610dd8565b820191906000526020600020905b815481529060010190602001808311610dbb57829003601f168201915b5050505050815250509050600073ffffffffffffffffffffffffffffffffffffffff168360000160009054906101000a900473ffffffffffffffffffffffffffffffffffffffff1673ffffffffffffffffffffffffffffffffffffffff161115610e77576040517f08c379a0000000000000000000000000000000000000000000000000000000008152600401610e6e906155c1565b60405180910390fd5b600073ffffffffffffffffffffffffffffffffffffffff168260000160009054906101000a900473ffffffffffffffffffffffffffffffffffffffff1673ffffffffffffffffffffffffffffffffffffffff161115610f0b576040517f08c379a0000000000000000000000000000000000000000000000000000000008152600401610f02906155c1565b60405180910390fd5b600073ffffffffffffffffffffffffffffffffffffffff16816000015173ffffffffffffffffffffffffffffffffffffffff161115610f7f576040517f08c379a0000000000000000000000000000000000000000000000000000000008152600401610f76906155c1565b60405180910390fd5b7fc5d2460186f7233c927e7db2dcc703c0e500b653ca82273b7bfad8045d85a4708a604051602001610fb1919061561d565b6040516020818303038152906040528051906020012003611007576040517f08c379a0000000000000000000000000000000000000000000000000000000008152600401610ffe9061565a565b60405180910390fd5b6040518061012001604052803373ffffffffffffffffffffffffffffffffffffffff1681526020018b81526020018a8152602001898152602001858152602001888152602001878152602001868152602001600067ffffffffffffffff81111561107457611073614e12565b5b6040519080825280602002602001820160405280156110a25781602001602082028036833780820191505090505b50815250600460003373ffffffffffffffffffffffffffffffffffffffff1673ffffffffffffffffffffffffffffffffffffffff16815260200190815260200160002060008201518160000160006101000a81548173ffffffffffffffffffffffffffffffffffffffff021916908373ffffffffffffffffffffffffffffffffffffffff1602179055506020820151816001019080519060200190611148929190614819565b5060408201518160020155606082015181600301908051906020019061116f929190614819565b50608082015181600401908051906020019061118c929190614819565b5060a08201518160050190805190602001906111a9929190614819565b5060c08201518160060190805190602001906111c6929190614819565b5060e08201518160070190805190602001906111e3929190614819565b5061010082015181600801908051906020019061120192919061489f565b509050507f807cc07179f4a5c23823cab6e41e49bfd0d66ab9891a7669cd7a3a014304db1e338b6040516112369291906156c6565b60405180910390a150505050505050505050565b336000600460008373ffffffffffffffffffffffffffffffffffffffff1673ffffffffffffffffffffffffffffffffffffffff1681526020019081526020016000209050600073ffffffffffffffffffffffffffffffffffffffff168160000160009054906101000a900473ffffffffffffffffffffffffffffffffffffffff1673ffffffffffffffffffffffffffffffffffffffff1611611321576040517f08c379a0000000000000000000000000000000000000000000000000000000008152600401611318906154f5565b60405180910390fd5b826000600360008373ffffffffffffffffffffffffffffffffffffffff1673ffffffffffffffffffffffffffffffffffffffff168152602001908152602001600020604051806101200160405290816000820160009054906101000a900473ffffffffffffffffffffffffffffffffffffffff1673ffffffffffffffffffffffffffffffffffffffff1673ffffffffffffffffffffffffffffffffffffffff1681526020016001820180546113d590615544565b80601f016020809104026020016040519081016040528092919081815260200182805461140190615544565b801561144e5780601f106114235761010080835404028352916020019161144e565b820191906000526020600020905b81548152906001019060200180831161143157829003601f168201915b5050505050815260200160028201805461146790615544565b80601f016020809104026020016040519081016040528092919081815260200182805461149390615544565b80156114e05780601f106114b5576101008083540402835291602001916114e0565b820191906000526020600020905b8154815290600101906020018083116114c357829003601f168201915b505050505081526020016003820180546114f990615544565b80601f016020809104026020016040519081016040528092919081815260200182805461152590615544565b80156115725780601f1061154757610100808354040283529160200191611572565b820191906000526020600020905b81548152906001019060200180831161155557829003601f168201915b505050505081526020016004820154815260200160058201805461159590615544565b80601f01602080910402602001604051908101604052809291908181526020018280546115c190615544565b801561160e5780601f106115e35761010080835404028352916020019161160e565b820191906000526020600020905b8154815290600101906020018083116115f157829003601f168201915b5050505050815260200160068201805461162790615544565b80601f016020809104026020016040519081016040528092919081815260200182805461165390615544565b80156116a05780601f10611675576101008083540402835291602001916116a0565b820191906000526020600020905b81548152906001019060200180831161168357829003601f168201915b505050505081526020016007820160009054906101000a900473ffffffffffffffffffffffffffffffffffffffff1673ffffffffffffffffffffffffffffffffffffffff1673ffffffffffffffffffffffffffffffffffffffff1681526020016008820180548060200260200160405190810160405280929190818152602001828054801561178457602002820191906000526020600020905b8160009054906101000a900473ffffffffffffffffffffffffffffffffffffffff1673ffffffffffffffffffffffffffffffffffffffff168152602001906001019080831161173a575b5050505050815250509050600073ffffffffffffffffffffffffffffffffffffffff16816000015173ffffffffffffffffffffffffffffffffffffffff1611611802576040517f08c379a00000000000000000000000000000000000000000000000000000000081526004016117f99061577b565b60405180910390fd5b6000600460003373ffffffffffffffffffffffffffffffffffffffff1673ffffffffffffffffffffffffffffffffffffffff16815260200190815260200160002090506000600360008873ffffffffffffffffffffffffffffffffffffffff1673ffffffffffffffffffffffffffffffffffffffff16815260200190815260200160002090506001600760003373ffffffffffffffffffffffffffffffffffffffff1673ffffffffffffffffffffffffffffffffffffffff16815260200190815260200160002060008973ffffffffffffffffffffffffffffffffffffffff1673ffffffffffffffffffffffffffffffffffffffff1681526020019081526020016000205410611947576040517f08c379a000000000000000000000000000000000000000000000000000000000815260040161193e906157e7565b60405180910390fd5b81600801879080600181540180825580915050600190039060005260206000200160009091909190916101000a81548173ffffffffffffffffffffffffffffffffffffffff021916908373ffffffffffffffffffffffffffffffffffffffff160217905550600760003373ffffffffffffffffffffffffffffffffffffffff1673ffffffffffffffffffffffffffffffffffffffff16815260200190815260200160002060008873ffffffffffffffffffffffffffffffffffffffff1673ffffffffffffffffffffffffffffffffffffffff1681526020019081526020016000206000815480929190611a3990615836565b9190505550600660008873ffffffffffffffffffffffffffffffffffffffff1673ffffffffffffffffffffffffffffffffffffffff16815260200190815260200160002060003373ffffffffffffffffffffffffffffffffffffffff1673ffffffffffffffffffffffffffffffffffffffff1681526020019081526020016000206000815480929190611acb90615836565b919050555080600801339080600181540180825580915050600190039060005260206000200160009091909190916101000a81548173ffffffffffffffffffffffffffffffffffffffff021916908373ffffffffffffffffffffffffffffffffffffffff16021790555050505050505050565b6000600460003373ffffffffffffffffffffffffffffffffffffffff1673ffffffffffffffffffffffffffffffffffffffff16815260200190815260200160002090506000600360003373ffffffffffffffffffffffffffffffffffffffff1673ffffffffffffffffffffffffffffffffffffffff16815260200190815260200160002090506000600260003373ffffffffffffffffffffffffffffffffffffffff1673ffffffffffffffffffffffffffffffffffffffff1681526020019081526020016000206040518060c00160405290816000820160009054906101000a900473ffffffffffffffffffffffffffffffffffffffff1673ffffffffffffffffffffffffffffffffffffffff1673ffffffffffffffffffffffffffffffffffffffff168152602001600182018054611c7690615544565b80601f0160208091040260200160405190810160405280929190818152602001828054611ca290615544565b8015611cef5780601f10611cc457610100808354040283529160200191611cef565b820191906000526020600020905b815481529060010190602001808311611cd257829003601f168201915b50505050508152602001600282018054611d0890615544565b80601f0160208091040260200160405190810160405280929190818152602001828054611d3490615544565b8015611d815780601f10611d5657610100808354040283529160200191611d81565b820191906000526020600020905b815481529060010190602001808311611d6457829003601f168201915b5050505050815260200160038201548152602001600482018054611da490615544565b80601f0160208091040260200160405190810160405280929190818152602001828054611dd090615544565b8015611e1d5780601f10611df257610100808354040283529160200191611e1d565b820191906000526020600020905b815481529060010190602001808311611e0057829003601f168201915b50505050508152602001600582018054611e3690615544565b80601f0160208091040260200160405190810160405280929190818152602001828054611e6290615544565b8015611eaf5780601f10611e8457610100808354040283529160200191611eaf565b820191906000526020600020905b815481529060010190602001808311611e9257829003601f168201915b5050505050815250509050600073ffffffffffffffffffffffffffffffffffffffff168360000160009054906101000a900473ffffffffffffffffffffffffffffffffffffffff1673ffffffffffffffffffffffffffffffffffffffff161115611f4e576040517f08c379a0000000000000000000000000000000000000000000000000000000008152600401611f45906155c1565b60405180910390fd5b600073ffffffffffffffffffffffffffffffffffffffff168260000160009054906101000a900473ffffffffffffffffffffffffffffffffffffffff1673ffffffffffffffffffffffffffffffffffffffff161115611fe2576040517f08c379a0000000000000000000000000000000000000000000000000000000008152600401611fd9906155c1565b60405180910390fd5b600073ffffffffffffffffffffffffffffffffffffffff16816000015173ffffffffffffffffffffffffffffffffffffffff161115612056576040517f08c379a000000000000000000000000000000000000000000000000000000000815260040161204d906155c1565b60405180910390fd5b7fc5d2460186f7233c927e7db2dcc703c0e500b653ca82273b7bfad8045d85a47088604051602001612088919061561d565b60405160208183030381529060405280519060200120036120de576040517f08c379a00000000000000000000000000000000000000000000000000000000081526004016120d59061565a565b60405180910390fd5b6040518060c001604052803373ffffffffffffffffffffffffffffffffffffffff16815260200189815260200185815260200186815260200188815260200187815250600260003373ffffffffffffffffffffffffffffffffffffffff1673ffffffffffffffffffffffffffffffffffffffff16815260200190815260200160002060008201518160000160006101000a81548173ffffffffffffffffffffffffffffffffffffffff021916908373ffffffffffffffffffffffffffffffffffffffff16021790555060208201518160010190805190602001906121c3929190614819565b5060408201518160020190805190602001906121e0929190614819565b50606082015181600301556080820151816004019080519060200190612207929190614819565b5060a0820151816005019080519060200190612224929190614819565b509050507f807cc07179f4a5c23823cab6e41e49bfd0d66ab9891a7669cd7a3a014304db1e33896040516122599291906158ca565b60405180910390a15050505050505050565b612273614929565b336000600360008373ffffffffffffffffffffffffffffffffffffffff1673ffffffffffffffffffffffffffffffffffffffff168152602001908152602001600020604051806101200160405290816000820160009054906101000a900473ffffffffffffffffffffffffffffffffffffffff1673ffffffffffffffffffffffffffffffffffffffff1673ffffffffffffffffffffffffffffffffffffffff16815260200160018201805461232790615544565b80601f016020809104026020016040519081016040528092919081815260200182805461235390615544565b80156123a05780601f10612375576101008083540402835291602001916123a0565b820191906000526020600020905b81548152906001019060200180831161238357829003601f168201915b505050505081526020016002820180546123b990615544565b80601f01602080910402602001604051908101604052809291908181526020018280546123e590615544565b80156124325780601f1061240757610100808354040283529160200191612432565b820191906000526020600020905b81548152906001019060200180831161241557829003601f168201915b5050505050815260200160038201805461244b90615544565b80601f016020809104026020016040519081016040528092919081815260200182805461247790615544565b80156124c45780601f10612499576101008083540402835291602001916124c4565b820191906000526020600020905b8154815290600101906020018083116124a757829003601f168201915b50505050508152602001600482015481526020016005820180546124e790615544565b80601f016020809104026020016040519081016040528092919081815260200182805461251390615544565b80156125605780601f1061253557610100808354040283529160200191612560565b820191906000526020600020905b81548152906001019060200180831161254357829003601f168201915b5050505050815260200160068201805461257990615544565b80601f01602080910402602001604051908101604052809291908181526020018280546125a590615544565b80156125f25780601f106125c7576101008083540402835291602001916125f2565b820191906000526020600020905b8154815290600101906020018083116125d557829003601f168201915b505050505081526020016007820160009054906101000a900473ffffffffffffffffffffffffffffffffffffffff1673ffffffffffffffffffffffffffffffffffffffff1673ffffffffffffffffffffffffffffffffffffffff168152602001600882018054806020026020016040519081016040528092919081815260200182805480156126d657602002820191906000526020600020905b8160009054906101000a900473ffffffffffffffffffffffffffffffffffffffff1673ffffffffffffffffffffffffffffffffffffffff168152602001906001019080831161268c575b5050505050815250509050600073ffffffffffffffffffffffffffffffffffffffff16816000015173ffffffffffffffffffffffffffffffffffffffff1611612754576040517f08c379a000000000000000000000000000000000000000000000000000000000815260040161274b9061577b565b60405180910390fd5b600360003373ffffffffffffffffffffffffffffffffffffffff1673ffffffffffffffffffffffffffffffffffffffff168152602001908152602001600020604051806101200160405290816000820160009054906101000a900473ffffffffffffffffffffffffffffffffffffffff1673ffffffffffffffffffffffffffffffffffffffff1673ffffffffffffffffffffffffffffffffffffffff16815260200160018201805461280590615544565b80601f016020809104026020016040519081016040528092919081815260200182805461283190615544565b801561287e5780601f106128535761010080835404028352916020019161287e565b820191906000526020600020905b81548152906001019060200180831161286157829003601f168201915b5050505050815260200160028201805461289790615544565b80601f01602080910402602001604051908101604052809291908181526020018280546128c390615544565b80156129105780601f106128e557610100808354040283529160200191612910565b820191906000526020600020905b8154815290600101906020018083116128f357829003601f168201915b5050505050815260200160038201805461292990615544565b80601f016020809104026020016040519081016040528092919081815260200182805461295590615544565b80156129a25780601f10612977576101008083540402835291602001916129a2565b820191906000526020600020905b81548152906001019060200180831161298557829003601f168201915b50505050508152602001600482015481526020016005820180546129c590615544565b80601f01602080910402602001604051908101604052809291908181526020018280546129f190615544565b8015612a3e5780601f10612a1357610100808354040283529160200191612a3e565b820191906000526020600020905b815481529060010190602001808311612a2157829003601f168201915b50505050508152602001600682018054612a5790615544565b80601f0160208091040260200160405190810160405280929190818152602001828054612a8390615544565b8015612ad05780601f10612aa557610100808354040283529160200191612ad0565b820191906000526020600020905b815481529060010190602001808311612ab357829003601f168201915b505050505081526020016007820160009054906101000a900473ffffffffffffffffffffffffffffffffffffffff1673ffffffffffffffffffffffffffffffffffffffff1673ffffffffffffffffffffffffffffffffffffffff16815260200160088201805480602002602001604051908101604052809291908181526020018280548015612bb457602002820191906000526020600020905b8160009054906101000a900473ffffffffffffffffffffffffffffffffffffffff1673ffffffffffffffffffffffffffffffffffffffff1681526020019060010190808311612b6a575b5050505050815250509250505090565b336000600260008373ffffffffffffffffffffffffffffffffffffffff1673ffffffffffffffffffffffffffffffffffffffff1681526020019081526020016000209050600073ffffffffffffffffffffffffffffffffffffffff168160000160009054906101000a900473ffffffffffffffffffffffffffffffffffffffff1673ffffffffffffffffffffffffffffffffffffffff1611612c9b576040517f08c379a0000000000000000000000000000000000000000000000000000000008152600401612c929061597f565b60405180910390fd5b826000600360008373ffffffffffffffffffffffffffffffffffffffff1673ffffffffffffffffffffffffffffffffffffffff168152602001908152602001600020604051806101200160405290816000820160009054906101000a900473ffffffffffffffffffffffffffffffffffffffff1673ffffffffffffffffffffffffffffffffffffffff1673ffffffffffffffffffffffffffffffffffffffff168152602001600182018054612d4f90615544565b80601f0160208091040260200160405190810160405280929190818152602001828054612d7b90615544565b8015612dc85780601f10612d9d57610100808354040283529160200191612dc8565b820191906000526020600020905b815481529060010190602001808311612dab57829003601f168201915b50505050508152602001600282018054612de190615544565b80601f0160208091040260200160405190810160405280929190818152602001828054612e0d90615544565b8015612e5a5780601f10612e2f57610100808354040283529160200191612e5a565b820191906000526020600020905b815481529060010190602001808311612e3d57829003601f168201915b50505050508152602001600382018054612e7390615544565b80601f0160208091040260200160405190810160405280929190818152602001828054612e9f90615544565b8015612eec5780601f10612ec157610100808354040283529160200191612eec565b820191906000526020600020905b815481529060010190602001808311612ecf57829003601f168201915b5050505050815260200160048201548152602001600582018054612f0f90615544565b80601f0160208091040260200160405190810160405280929190818152602001828054612f3b90615544565b8015612f885780601f10612f5d57610100808354040283529160200191612f88565b820191906000526020600020905b815481529060010190602001808311612f6b57829003601f168201915b50505050508152602001600682018054612fa190615544565b80601f0160208091040260200160405190810160405280929190818152602001828054612fcd90615544565b801561301a5780601f10612fef5761010080835404028352916020019161301a565b820191906000526020600020905b815481529060010190602001808311612ffd57829003601f168201915b505050505081526020016007820160009054906101000a900473ffffffffffffffffffffffffffffffffffffffff1673ffffffffffffffffffffffffffffffffffffffff1673ffffffffffffffffffffffffffffffffffffffff168152602001600882018054806020026020016040519081016040528092919081815260200182805480156130fe57602002820191906000526020600020905b8160009054906101000a900473ffffffffffffffffffffffffffffffffffffffff1673ffffffffffffffffffffffffffffffffffffffff16815260200190600101908083116130b4575b5050505050815250509050600073ffffffffffffffffffffffffffffffffffffffff16816000015173ffffffffffffffffffffffffffffffffffffffff161161317c576040517f08c379a00000000000000000000000000000000000000000000000000000000081526004016131739061577b565b60405180910390fd5b33600360008773ffffffffffffffffffffffffffffffffffffffff1673ffffffffffffffffffffffffffffffffffffffff16815260200190815260200160002060070160006101000a81548173ffffffffffffffffffffffffffffffffffffffff021916908373ffffffffffffffffffffffffffffffffffffffff1602179055505050505050565b600060608060606000600460003373ffffffffffffffffffffffffffffffffffffffff1673ffffffffffffffffffffffffffffffffffffffff168152602001908152602001600020604051806101200160405290816000820160009054906101000a900473ffffffffffffffffffffffffffffffffffffffff1673ffffffffffffffffffffffffffffffffffffffff1673ffffffffffffffffffffffffffffffffffffffff1681526020016001820180546132be90615544565b80601f01602080910402602001604051908101604052809291908181526020018280546132ea90615544565b80156133375780601f1061330c57610100808354040283529160200191613337565b820191906000526020600020905b81548152906001019060200180831161331a57829003601f168201915b505050505081526020016002820154815260200160038201805461335a90615544565b80601f016020809104026020016040519081016040528092919081815260200182805461338690615544565b80156133d35780601f106133a8576101008083540402835291602001916133d3565b820191906000526020600020905b8154815290600101906020018083116133b657829003601f168201915b505050505081526020016004820180546133ec90615544565b80601f016020809104026020016040519081016040528092919081815260200182805461341890615544565b80156134655780601f1061343a57610100808354040283529160200191613465565b820191906000526020600020905b81548152906001019060200180831161344857829003601f168201915b5050505050815260200160058201805461347e90615544565b80601f01602080910402602001604051908101604052809291908181526020018280546134aa90615544565b80156134f75780601f106134cc576101008083540402835291602001916134f7565b820191906000526020600020905b8154815290600101906020018083116134da57829003601f168201915b5050505050815260200160068201805461351090615544565b80601f016020809104026020016040519081016040528092919081815260200182805461353c90615544565b80156135895780601f1061355e57610100808354040283529160200191613589565b820191906000526020600020905b81548152906001019060200180831161356c57829003601f168201915b505050505081526020016007820180546135a290615544565b80601f01602080910402602001604051908101604052809291908181526020018280546135ce90615544565b801561361b5780601f106135f05761010080835404028352916020019161361b565b820191906000526020600020905b8154815290600101906020018083116135fe57829003601f168201915b50505050508152602001600882018054806020026020016040519081016040528092919081815260200182805480156136a957602002820191906000526020600020905b8160009054906101000a900473ffffffffffffffffffffffffffffffffffffffff1673ffffffffffffffffffffffffffffffffffffffff168152602001906001019080831161365f575b50505050508152505090506000600260003373ffffffffffffffffffffffffffffffffffffffff1673ffffffffffffffffffffffffffffffffffffffff1681526020019081526020016000206040518060c00160405290816000820160009054906101000a900473ffffffffffffffffffffffffffffffffffffffff1673ffffffffffffffffffffffffffffffffffffffff1673ffffffffffffffffffffffffffffffffffffffff16815260200160018201805461376690615544565b80601f016020809104026020016040519081016040528092919081815260200182805461379290615544565b80156137df5780601f106137b4576101008083540402835291602001916137df565b820191906000526020600020905b8154815290600101906020018083116137c257829003601f168201915b505050505081526020016002820180546137f890615544565b80601f016020809104026020016040519081016040528092919081815260200182805461382490615544565b80156138715780601f1061384657610100808354040283529160200191613871565b820191906000526020600020905b81548152906001019060200180831161385457829003601f168201915b505050505081526020016003820154815260200160048201805461389490615544565b80601f01602080910402602001604051908101604052809291908181526020018280546138c090615544565b801561390d5780601f106138e25761010080835404028352916020019161390d565b820191906000526020600020905b8154815290600101906020018083116138f057829003601f168201915b5050505050815260200160058201805461392690615544565b80601f016020809104026020016040519081016040528092919081815260200182805461395290615544565b801561399f5780601f106139745761010080835404028352916020019161399f565b820191906000526020600020905b81548152906001019060200180831161398257829003601f168201915b50505050508152505090506000600360003373ffffffffffffffffffffffffffffffffffffffff1673ffffffffffffffffffffffffffffffffffffffff168152602001908152602001600020604051806101200160405290816000820160009054906101000a900473ffffffffffffffffffffffffffffffffffffffff1673ffffffffffffffffffffffffffffffffffffffff1673ffffffffffffffffffffffffffffffffffffffff168152602001600182018054613a5d90615544565b80601f0160208091040260200160405190810160405280929190818152602001828054613a8990615544565b8015613ad65780601f10613aab57610100808354040283529160200191613ad6565b820191906000526020600020905b815481529060010190602001808311613ab957829003601f168201915b50505050508152602001600282018054613aef90615544565b80601f0160208091040260200160405190810160405280929190818152602001828054613b1b90615544565b8015613b685780601f10613b3d57610100808354040283529160200191613b68565b820191906000526020600020905b815481529060010190602001808311613b4b57829003601f168201915b50505050508152602001600382018054613b8190615544565b80601f0160208091040260200160405190810160405280929190818152602001828054613bad90615544565b8015613bfa5780601f10613bcf57610100808354040283529160200191613bfa565b820191906000526020600020905b815481529060010190602001808311613bdd57829003601f168201915b5050505050815260200160048201548152602001600582018054613c1d90615544565b80601f0160208091040260200160405190810160405280929190818152602001828054613c4990615544565b8015613c965780601f10613c6b57610100808354040283529160200191613c96565b820191906000526020600020905b815481529060010190602001808311613c7957829003601f168201915b50505050508152602001600682018054613caf90615544565b80601f0160208091040260200160405190810160405280929190818152602001828054613cdb90615544565b8015613d285780601f10613cfd57610100808354040283529160200191613d28565b820191906000526020600020905b815481529060010190602001808311613d0b57829003601f168201915b505050505081526020016007820160009054906101000a900473ffffffffffffffffffffffffffffffffffffffff1673ffffffffffffffffffffffffffffffffffffffff1673ffffffffffffffffffffffffffffffffffffffff16815260200160088201805480602002602001604051908101604052809291908181526020018280548015613e0c57602002820191906000526020600020905b8160009054906101000a900473ffffffffffffffffffffffffffffffffffffffff1673ffffffffffffffffffffffffffffffffffffffff1681526020019060010190808311613dc2575b5050505050815250509050600073ffffffffffffffffffffffffffffffffffffffff16836000015173ffffffffffffffffffffffffffffffffffffffff161115613ea15733836020015184606001516040518060400160405280600781526020017f50617469656e74000000000000000000000000000000000000000000000000008152509650965096509650505050613ff0565b600073ffffffffffffffffffffffffffffffffffffffff16826000015173ffffffffffffffffffffffffffffffffffffffff161115613f2b5733826020015183604001516040518060400160405280600881526020017f486f73706974616c0000000000000000000000000000000000000000000000008152509650965096509650505050613ff0565b600073ffffffffffffffffffffffffffffffffffffffff16816000015173ffffffffffffffffffffffffffffffffffffffff161115613fb55733816020015182604001516040518060400160405280600681526020017f446f63746f7200000000000000000000000000000000000000000000000000008152509650965096509650505050613ff0565b6040517f08c379a0000000000000000000000000000000000000000000000000000000008152600401613fe7906159eb565b60405180910390fd5b90919293565b6000600460003373ffffffffffffffffffffffffffffffffffffffff1673ffffffffffffffffffffffffffffffffffffffff16815260200190815260200160002090506000600360003373ffffffffffffffffffffffffffffffffffffffff1673ffffffffffffffffffffffffffffffffffffffff16815260200190815260200160002090506000600260003373ffffffffffffffffffffffffffffffffffffffff1673ffffffffffffffffffffffffffffffffffffffff1681526020019081526020016000206040518060c00160405290816000820160009054906101000a900473ffffffffffffffffffffffffffffffffffffffff1673ffffffffffffffffffffffffffffffffffffffff1673ffffffffffffffffffffffffffffffffffffffff16815260200160018201805461412e90615544565b80601f016020809104026020016040519081016040528092919081815260200182805461415a90615544565b80156141a75780601f1061417c576101008083540402835291602001916141a7565b820191906000526020600020905b81548152906001019060200180831161418a57829003601f168201915b505050505081526020016002820180546141c090615544565b80601f01602080910402602001604051908101604052809291908181526020018280546141ec90615544565b80156142395780601f1061420e57610100808354040283529160200191614239565b820191906000526020600020905b81548152906001019060200180831161421c57829003601f168201915b505050505081526020016003820154815260200160048201805461425c90615544565b80601f016020809104026020016040519081016040528092919081815260200182805461428890615544565b80156142d55780601f106142aa576101008083540402835291602001916142d5565b820191906000526020600020905b8154815290600101906020018083116142b857829003601f168201915b505050505081526020016005820180546142ee90615544565b80601f016020809104026020016040519081016040528092919081815260200182805461431a90615544565b80156143675780601f1061433c57610100808354040283529160200191614367565b820191906000526020600020905b81548152906001019060200180831161434a57829003601f168201915b5050505050815250509050600073ffffffffffffffffffffffffffffffffffffffff168360000160009054906101000a900473ffffffffffffffffffffffffffffffffffffffff1673ffffffffffffffffffffffffffffffffffffffff161115614406576040517f08c379a00000000000000000000000000000000000000000000000000000000081526004016143fd906155c1565b60405180910390fd5b600073ffffffffffffffffffffffffffffffffffffffff168260000160009054906101000a900473ffffffffffffffffffffffffffffffffffffffff1673ffffffffffffffffffffffffffffffffffffffff16111561449a576040517f08c379a0000000000000000000000000000000000000000000000000000000008152600401614491906155c1565b60405180910390fd5b600073ffffffffffffffffffffffffffffffffffffffff16816000015173ffffffffffffffffffffffffffffffffffffffff16111561450e576040517f08c379a0000000000000000000000000000000000000000000000000000000008152600401614505906155c1565b60405180910390fd5b7fc5d2460186f7233c927e7db2dcc703c0e500b653ca82273b7bfad8045d85a47089604051602001614540919061561d565b6040516020818303038152906040528051906020012003614596576040517f08c379a000000000000000000000000000000000000000000000000000000000815260040161458d9061565a565b60405180910390fd5b6040518061012001604052803373ffffffffffffffffffffffffffffffffffffffff1681526020018a8152602001898152602001858152602001888152602001878152602001868152602001600073ffffffffffffffffffffffffffffffffffffffff168152602001600067ffffffffffffffff81111561461a57614619614e12565b5b6040519080825280602002602001820160405280156146485781602001602082028036833780820191505090505b50815250600360003373ffffffffffffffffffffffffffffffffffffffff1673ffffffffffffffffffffffffffffffffffffffff16815260200190815260200160002060008201518160000160006101000a81548173ffffffffffffffffffffffffffffffffffffffff021916908373ffffffffffffffffffffffffffffffffffffffff16021790555060208201518160010190805190602001906146ee929190614819565b50604082015181600201908051906020019061470b929190614819565b506060820151816003019080519060200190614728929190614819565b506080820151816004015560a082015181600501908051906020019061474f929190614819565b5060c082015181600601908051906020019061476c929190614819565b5060e08201518160070160006101000a81548173ffffffffffffffffffffffffffffffffffffffff021916908373ffffffffffffffffffffffffffffffffffffffff1602179055506101008201518160080190805190602001906147d192919061489f565b509050507f807cc07179f4a5c23823cab6e41e49bfd0d66ab9891a7669cd7a3a014304db1e338a604051614806929190615a57565b60405180910390a1505050505050505050565b82805461482590615544565b90600052602060002090601f016020900481019282614847576000855561488e565b82601f1061486057805160ff191683800117855561488e565b8280016001018555821561488e579182015b8281111561488d578251825591602001919060010190614872565b5b50905061489b91906149a1565b5090565b828054828255906000526020600020908101928215614918579160200282015b828111156149175782518260006101000a81548173ffffffffffffffffffffffffffffffffffffffff021916908373ffffffffffffffffffffffffffffffffffffffff160217905550916020019190600101906148bf565b5b50905061492591906149a1565b5090565b604051806101200160405280600073ffffffffffffffffffffffffffffffffffffffff168152602001606081526020016060815260200160608152602001600081526020016060815260200160608152602001600073ffffffffffffffffffffffffffffffffffffffff168152602001606081525090565b5b808211156149ba5760008160009055506001016149a2565b5090565b600081519050919050565b600082825260208201905092915050565b60005b838110156149f85780820151818401526020810190506149dd565b83811115614a07576000848401525b50505050565b6000601f19601f8301169050919050565b6000614a29826149be565b614a3381856149c9565b9350614a438185602086016149da565b614a4c81614a0d565b840191505092915050565b600081519050919050565b600082825260208201905092915050565b6000819050602082019050919050565b6000819050919050565b614a9681614a83565b82525050565b600082825260208201905092915050565b6000614ab8826149be565b614ac28185614a9c565b9350614ad28185602086016149da565b614adb81614a0d565b840191505092915050565b600073ffffffffffffffffffffffffffffffffffffffff82169050919050565b6000614b1182614ae6565b9050919050565b614b2181614b06565b82525050565b600081519050919050565b600082825260208201905092915050565b6000819050602082019050919050565b6000614b5f8383614b18565b60208301905092915050565b6000602082019050919050565b6000614b8382614b27565b614b8d8185614b32565b9350614b9883614b43565b8060005b83811015614bc9578151614bb08882614b53565b9750614bbb83614b6b565b925050600181019050614b9c565b5085935050505092915050565b600061016083016000830151614bef6000860182614a8d565b5060208301518482036020860152614c078282614aad565b9150506040830151614c1c6040860182614b18565b506060830151614c2f6060860182614b18565b506080830151614c426080860182614a8d565b5060a083015184820360a0860152614c5a8282614aad565b91505060c0830151614c6f60c0860182614a8d565b5060e0830151614c8260e0860182614a8d565b50610100830151614c97610100860182614a8d565b50610120830151614cac610120860182614a8d565b50610140830151848203610140860152614cc68282614b78565b9150508091505092915050565b6000614cdf8383614bd6565b905092915050565b6000602082019050919050565b6000614cff82614a57565b614d098185614a62565b935083602082028501614d1b85614a73565b8060005b85811015614d575784840389528151614d388582614cd3565b9450614d4383614ce7565b925060208a01995050600181019050614d1f565b50829750879550505050505092915050565b600060c0820190508181036000830152614d838189614a1e565b90508181036020830152614d978188614a1e565b90508181036040830152614dab8187614a1e565b90508181036060830152614dbf8186614a1e565b90508181036080830152614dd38185614a1e565b905081810360a0830152614de78184614cf4565b9050979650505050505050565b6000604051905090565b600080fd5b600080fd5b600080fd5b600080fd5b7f4e487b7100000000000000000000000000000000000000000000000000000000600052604160045260246000fd5b614e4a82614a0d565b810181811067ffffffffffffffff82111715614e6957614e68614e12565b5b80604052505050565b6000614e7c614df4565b9050614e888282614e41565b919050565b600067ffffffffffffffff821115614ea857614ea7614e12565b5b614eb182614a0d565b9050602081019050919050565b82818337600083830152505050565b6000614ee0614edb84614e8d565b614e72565b905082815260208101848484011115614efc57614efb614e0d565b5b614f07848285614ebe565b509392505050565b600082601f830112614f2457614f23614e08565b5b8135614f34848260208601614ecd565b91505092915050565b614f4681614a83565b8114614f5157600080fd5b50565b600081359050614f6381614f3d565b92915050565b600080600080600080600060e0888a031215614f8857614f87614dfe565b5b600088013567ffffffffffffffff811115614fa657614fa5614e03565b5b614fb28a828b01614f0f565b9750506020614fc38a828b01614f54565b965050604088013567ffffffffffffffff811115614fe457614fe3614e03565b5b614ff08a828b01614f0f565b955050606088013567ffffffffffffffff81111561501157615010614e03565b5b61501d8a828b01614f0f565b945050608088013567ffffffffffffffff81111561503e5761503d614e03565b5b61504a8a828b01614f0f565b93505060a088013567ffffffffffffffff81111561506b5761506a614e03565b5b6150778a828b01614f0f565b92505060c088013567ffffffffffffffff81111561509857615097614e03565b5b6150a48a828b01614f0f565b91505092959891949750929550565b6150bc81614b06565b81146150c757600080fd5b50565b6000813590506150d9816150b3565b92915050565b6000602082840312156150f5576150f4614dfe565b5b6000615103848285016150ca565b91505092915050565b600080600080600060a0868803121561512857615127614dfe565b5b600086013567ffffffffffffffff81111561514657615145614e03565b5b61515288828901614f0f565b955050602086013567ffffffffffffffff81111561517357615172614e03565b5b61517f88828901614f0f565b945050604086013567ffffffffffffffff8111156151a05761519f614e03565b5b6151ac88828901614f0f565b93505060606151bd88828901614f54565b925050608086013567ffffffffffffffff8111156151de576151dd614e03565b5b6151ea88828901614f0f565b9150509295509295909350565b6000610120830160008301516152106000860182614b18565b50602083015184820360208601526152288282614aad565b915050604083015184820360408601526152428282614aad565b9150506060830151848203606086015261525c8282614aad565b91505060808301516152716080860182614a8d565b5060a083015184820360a08601526152898282614aad565b91505060c083015184820360c08601526152a38282614aad565b91505060e08301516152b860e0860182614b18565b506101008301518482036101008601526152d28282614b78565b9150508091505092915050565b600060208201905081810360008301526152f981846151f7565b905092915050565b61530a81614b06565b82525050565b60006080820190506153256000830187615301565b81810360208301526153378186614a1e565b9050818103604083015261534b8185614a1e565b9050818103606083015261535f8184614a1e565b905095945050505050565b60008060008060008060c0878903121561538757615386614dfe565b5b600087013567ffffffffffffffff8111156153a5576153a4614e03565b5b6153b189828a01614f0f565b965050602087013567ffffffffffffffff8111156153d2576153d1614e03565b5b6153de89828a01614f0f565b95505060406153ef89828a01614f54565b945050606087013567ffffffffffffffff8111156154105761540f614e03565b5b61541c89828a01614f0f565b935050608087013567ffffffffffffffff81111561543d5761543c614e03565b5b61544989828a01614f0f565b92505060a087013567ffffffffffffffff81111561546a57615469614e03565b5b61547689828a01614f0f565b9150509295509295509295565b7f50617469656e74204e6f7420466f756e64206f72204163636573732044656e6960008201527f6564000000000000000000000000000000000000000000000000000000000000602082015250565b60006154df6022836149c9565b91506154ea82615483565b604082019050919050565b6000602082019050818103600083015261550e816154d2565b9050919050565b7f4e487b7100000000000000000000000000000000000000000000000000000000600052602260045260246000fd5b6000600282049050600182168061555c57607f821691505b60208210810361556f5761556e615515565b5b50919050565b7f4163636f756e7420616c72656164792070726573656e74000000000000000000600082015250565b60006155ab6017836149c9565b91506155b682615575565b602082019050919050565b600060208201905081810360008301526155da8161559e565b9050919050565b600081905092915050565b60006155f7826149be565b61560181856155e1565b93506156118185602086016149da565b80840191505092915050565b600061562982846155ec565b915081905092915050565b50565b60006156446000836149c9565b915061564f82615634565b600082019050919050565b6000602082019050818103600083015261567381615637565b9050919050565b7f50617469656e7400000000000000000000000000000000000000000000000000600082015250565b60006156b06007836149c9565b91506156bb8261567a565b602082019050919050565b60006060820190506156db6000830185615301565b81810360208301526156ed8184614a1e565b90508181036040830152615700816156a3565b90509392505050565b7f446f63746f72204e6f7420466f756e64206f72204163636573732044656e696560008201527f6400000000000000000000000000000000000000000000000000000000000000602082015250565b60006157656021836149c9565b915061577082615709565b604082019050919050565b6000602082019050818103600083015261579481615758565b9050919050565b7f5468697320446f63746f7220697320616c72656164792061737369676e656400600082015250565b60006157d1601f836149c9565b91506157dc8261579b565b602082019050919050565b60006020820190508181036000830152615800816157c4565b9050919050565b7f4e487b7100000000000000000000000000000000000000000000000000000000600052601160045260246000fd5b600061584182614a83565b91507fffffffffffffffffffffffffffffffffffffffffffffffffffffffffffffffff820361587357615872615807565b5b600182019050919050565b7f486f73706974616c000000000000000000000000000000000000000000000000600082015250565b60006158b46008836149c9565b91506158bf8261587e565b602082019050919050565b60006060820190506158df6000830185615301565b81810360208301526158f18184614a1e565b90508181036040830152615904816158a7565b90509392505050565b7f486f73706974616c204e6f7420466f756e64206f72204163636573732044656e60008201527f6965640000000000000000000000000000000000000000000000000000000000602082015250565b60006159696023836149c9565b91506159748261590d565b604082019050919050565b600060208201905081810360008301526159988161595c565b9050919050565b7f4e4f204163636f756e7420666f756e6400000000000000000000000000000000600082015250565b60006159d56010836149c9565b91506159e08261599f565b602082019050919050565b60006020820190508181036000830152615a04816159c8565b9050919050565b7f446f63746f720000000000000000000000000000000000000000000000000000600082015250565b6000615a416006836149c9565b9150615a4c82615a0b565b602082019050919050565b6000606082019050615a6c6000830185615301565b8181036020830152615a7e8184614a1e565b90508181036040830152615a9181615a34565b9050939250505056fea2646970667358221220a61c50519b06f8e2c60b91619e564a99a0123e7c8b1a039c9bfe995282dc440464736f6c634300080d0033",
  "immutableReferences": {},
  "source": "// SPDX-License-Identifier: MIT\npragma solidity >=0.4.25 <0.9.0;\n\ncontract HealthCare {\n    address private owner;\n    uint private reportCount = 0;\n\n    struct Hospital {\n        address id;\n        string name;\n        string email;\n        uint phone;\n        string description;\n        string location;\n    }\n\n    struct Doctor {\n        address id;\n        string name;\n        string email;\n        string gender;\n        uint phone;\n        string type_name;\n        string location;\n        address hospital;\n        address[] patient_list;\n    }\n\n    struct Patient {\n        address id;\n        string name;\n        uint phone;\n        string email;\n        string gender;\n        string dob;\n        string bloodGroup;\n        string permanentAddress;\n        address[] doctor_list;\n        // uint score;\n        // Analysis[] history;\n    }\n\n    struct Analysis {\n        uint256 ID;\n        string testName;\n        address hospital;\n        address doctor;\n        uint256 price;\n        string date;\n        uint256 value;\n        uint256 min;\n        uint256 max;\n        uint256 weight;\n        address[] signatures;\n    }\n\n    mapping(address => Hospital) private hospitals;\n    mapping(address => Doctor) private doctors;\n    mapping(address => Patient) private patients;\n    mapping(address => Analysis[]) reports;\n\n    mapping(address => mapping(address => uint256)) private doctorToPatient; // doctors to patient list\n    mapping(address => mapping(address => uint256)) private patientToDoctor;\n\n    constructor() {\n        owner = msg.sender;\n    }\n\n    modifier checkDoctor(address id) {\n        Doctor memory d = doctors[id];\n        require(d.id > address(0x0), \"Doctor Not Found or Access Denied\");\n        _;\n    }\n\n    modifier checkPatient(address id) {\n        Patient storage p = patients[id];\n        require(p.id > address(0x0), \"Patient Not Found or Access Denied\");\n        _;\n    }\n\n    modifier checkHospital(address id) {\n        Hospital storage h = hospitals[id];\n        require(h.id > address(0x0), \"Hospital Not Found or Access Denied\");\n        _;\n    }\n\n    modifier checkDoctorOrHospital(address id) {\n        Hospital memory h = hospitals[msg.sender];\n        Doctor memory d = doctors[msg.sender];\n        require(\n            h.id > address(0x0) || d.id > address(0x0),\n            \"User not found or Access Denied\"\n        );\n        _;\n    }\n\n    event Signup(address add, string name, string role);\n\n    // -------------------------------------------------------------------------------\n    //  Patient\n    // -------------------------------------------------------------------------------\n\n    function addPatient(\n        string memory _name,\n        uint _phone,\n        string memory _email,\n        string memory _dob,\n        string memory _bloodGroup,\n        string memory _permanentAddress,\n        string memory _gender\n    ) public {\n        Patient storage p = patients[msg.sender];\n        Doctor storage d = doctors[msg.sender];\n        Hospital memory h = hospitals[msg.sender];\n        require(!(p.id > address(0x0)), \"Account already present\");\n        require(!(d.id > address(0x0)), \"Account already present\");\n        require(!(h.id > address(0x0)), \"Account already present\");\n        require(keccak256(abi.encodePacked(_name)) != keccak256(\"\"), \"\");\n        patients[msg.sender] = Patient({\n            id: msg.sender,\n            name: _name,\n            phone: _phone,\n            email: _email,\n            dob: _dob,\n            bloodGroup: _bloodGroup,\n            permanentAddress: _permanentAddress,\n            doctor_list: new address[](0),\n            gender: _gender\n        });\n        emit Signup(msg.sender, _name, \"Patient\");\n    }\n\n    function getPatientProfile()\n        public\n        view\n        checkPatient(msg.sender)\n        returns (\n            string memory name,\n            string memory email,\n            string memory dob,\n            string memory bloodGroup,\n            string memory permanentAddress,\n            Analysis[] memory history\n        )\n    {\n        Patient memory p = patients[msg.sender];\n        return (\n            p.name,\n            p.email,\n            p.dob,\n            p.bloodGroup,\n            p.permanentAddress,\n            reports[msg.sender]\n        );\n    }\n\n    function grantAccessToDoctor(\n        address doctor_id\n    ) public checkPatient(msg.sender) checkDoctor(doctor_id) {\n        Patient storage p = patients[msg.sender];\n        Doctor storage d = doctors[doctor_id];\n        require(\n            patientToDoctor[msg.sender][doctor_id] < 1,\n            \"This Doctor is already assigned\"\n        );\n\n        p.doctor_list.push(doctor_id);\n        patientToDoctor[msg.sender][doctor_id]++;\n        doctorToPatient[doctor_id][msg.sender]++;\n        d.patient_list.push(msg.sender);\n    }\n\n    // function removeAccessFromDoctor(\n    //     address doctor_id\n    // ) public checkPatient(msg.sender) checkDoctor(doctor_id) {\n    //     require(\n    //         patientToDoctor[msg.sender][doctor_id] > 0,\n    //         \"This Doctor is not assigned\"\n    //     );\n    //     patientToDoctor[msg.sender][doctor_id] = 0;\n    //     doctorToPatient[doctor_id][msg.sender] = 0;\n    // }\n\n    // -------------------------------------------------------------------------------\n    //  Doctor\n    // -------------------------------------------------------------------------------\n\n    function addDoctor(\n        string memory _name,\n        string memory email,\n        uint phone,\n        string memory _type_name,\n        string memory _location,\n        string memory _gender\n    ) public {\n        Patient storage p = patients[msg.sender];\n        Doctor storage d = doctors[msg.sender];\n        Hospital memory h = hospitals[msg.sender];\n        require(!(p.id > address(0x0)), \"Account already present\");\n        require(!(d.id > address(0x0)), \"Account already present\");\n        require(!(h.id > address(0x0)), \"Account already present\");\n        require(keccak256(abi.encodePacked(_name)) != keccak256(\"\"), \"\");\n        doctors[msg.sender] = Doctor({\n            id: msg.sender,\n            name: _name,\n            email: email,\n            phone: phone,\n            type_name: _type_name,\n            location: _location,\n            hospital: address(0x0),\n            patient_list: new address[](0),\n            gender: _gender\n        });\n        emit Signup(msg.sender, _name, \"Doctor\");\n    }\n\n    function getDoctorProfile()\n        public\n        view\n        checkDoctor(msg.sender)\n        returns (Doctor memory)\n    {\n        return doctors[msg.sender];\n    }\n\n    // function addAnalysis(\n    //     address pat,\n    //     string memory testName,\n    //     address hospital,\n    //     uint price,\n    //     string memory date,\n    //     uint value,\n    //     uint min,\n    //     uint max,\n    //     uint weight\n    // ) public checkDoctor(msg.sender) {\n    //     Doctor memory d = doctors[msg.sender];\n    //     require(d.hospital == hospital, \"Invalid Hospital\");\n    //     require(\n    //         patientToDoctor[pat][msg.sender] > 0,\n    //         \"Doctor is not assigned to Patient\"\n    //     );\n    //     address[] memory sign = new address[](1);\n    //     sign[0] = msg.sender;\n    //     reports[pat].push(\n    //         Analysis({\n    //             ID: reportCount,\n    //             testName: testName,\n    //             hospital: hospital,\n    //             doctor: msg.sender,\n    //             price: price,\n    //             date: date,\n    //             value: value,\n    //             min: min,\n    //             max: max,\n    //             weight: weight,\n    //             signatures: sign\n    //         })\n    //     );\n    //     reportCount++;\n    // }\n\n\n\n    // -------------------------------------------------------------------------------\n    //  Hospital\n    // -------------------------------------------------------------------------------\n\n    function addHospital(\n        string memory name,\n        string memory descr,\n        string memory location,\n        uint _phone,\n        string memory _email\n    ) public {\n        Patient storage p = patients[msg.sender];\n        Doctor storage d = doctors[msg.sender];\n        Hospital memory h = hospitals[msg.sender];\n        require(!(p.id > address(0x0)), \"Account already present\");\n        require(!(d.id > address(0x0)), \"Account already present\");\n        require(!(h.id > address(0x0)), \"Account already present\");\n        require(keccak256(abi.encodePacked(name)) != keccak256(\"\"), \"\");\n        hospitals[msg.sender] = Hospital(\n            msg.sender,\n            name,\n            _email,\n            _phone,\n            descr,\n            location\n        );\n        emit Signup(msg.sender, name, \"Hospital\");\n    }\n\n    function assignHostpitalToDoctor(\n        address doc\n    ) public checkHospital(msg.sender) checkDoctor(doc) {\n        doctors[doc].hospital = msg.sender;\n    }\n\n    // -------------------------------------------------------------------------------\n    //  Public functions\n    // -------------------------------------------------------------------------------\n\n    function Login()\n        public\n        view\n        returns (\n            address id,\n            string memory name,\n            string memory email,\n            string memory role\n        )\n    {\n        Patient memory p = patients[msg.sender];\n        Hospital memory h = hospitals[msg.sender];\n        Doctor memory d = doctors[msg.sender];\n        if (p.id > address(0x0)) {\n            return (msg.sender, p.name, p.email, \"Patient\");\n        } else if (h.id > address(0x0)) {\n            return (msg.sender, h.name, h.email, \"Hospital\");\n        } else if (d.id > (address(0x0))) {\n            return (msg.sender, d.name, d.email, \"Doctor\");\n        }\n        revert(\"NO Account found\");\n    }\n}\n",
  "sourcePath": "/home/gulshan/Desktop/projects/web3/hp/src/contracts/HealthCare.sol",
  "compiler": {
    "name": "solc",
    "version": "0.8.13+commit.abaa5c0e.Emscripten.clang"
  },
  "schemaVersion": "3.4.10",
  "updatedAt": "2022-12-08T11:02:53.545Z",
  "networkType": "ethereum",
  "devdoc": {
    "kind": "dev",
    "methods": {},
    "version": 1
  },
  "userdoc": {
    "kind": "user",
    "methods": {},
    "version": 1
  }
}