{
  "contractName": "Sample",
  "abi": [
    {
      "inputs": [
        {
          "internalType": "string",
          "name": "name",
          "type": "string"
        },
        {
          "internalType": "string",
          "name": "descr",
          "type": "string"
        },
        {
          "internalType": "string",
          "name": "location",
          "type": "string"
        }
      ],
      "name": "addHospital",
      "outputs": [],
      "stateMutability": "nonpayable",
      "type": "function"
    },
    {
      "inputs": [
        {
          "internalType": "string",
          "name": "name",
          "type": "string"
        },
        {
          "internalType": "string",
          "name": "location",
          "type": "string"
        },
        {
          "internalType": "address",
          "name": "hospital",
          "type": "address"
        },
        {
          "internalType": "enum Sample.Designation",
          "name": "typ",
          "type": "uint8"
        }
      ],
      "name": "addDoctor",
      "outputs": [],
      "stateMutability": "nonpayable",
      "type": "function"
    }
  ],
  "bytecode": "0x608060405234801561001057600080fd5b5061058d806100206000396000f3fe608060405234801561001057600080fd5b50600436106100365760003560e01c80631027628f1461003b578063bfd4e49e14610057575b600080fd5b610055600480360381019061005091906103b1565b610073565b005b610071600480360381019061006c9190610450565b610079565b005b50505050565b6040518060600160405280848152602001838152602001828152506000803073ffffffffffffffffffffffffffffffffffffffff1673ffffffffffffffffffffffffffffffffffffffff16815260200190815260200160002060008201518160000190805190602001906100ee929190610131565b50602082015181600101908051906020019061010b929190610131565b506040820151816002019080519060200190610128929190610131565b50905050505050565b82805461013d90610526565b90600052602060002090601f01602090048101928261015f57600085556101a6565b82601f1061017857805160ff19168380011785556101a6565b828001600101855582156101a6579182015b828111156101a557825182559160200191906001019061018a565b5b5090506101b391906101b7565b5090565b5b808211156101d05760008160009055506001016101b8565b5090565b6000604051905090565b600080fd5b600080fd5b600080fd5b600080fd5b6000601f19601f8301169050919050565b7f4e487b7100000000000000000000000000000000000000000000000000000000600052604160045260246000fd5b61023b826101f2565b810181811067ffffffffffffffff8211171561025a57610259610203565b5b80604052505050565b600061026d6101d4565b90506102798282610232565b919050565b600067ffffffffffffffff82111561029957610298610203565b5b6102a2826101f2565b9050602081019050919050565b82818337600083830152505050565b60006102d16102cc8461027e565b610263565b9050828152602081018484840111156102ed576102ec6101ed565b5b6102f88482856102af565b509392505050565b600082601f830112610315576103146101e8565b5b81356103258482602086016102be565b91505092915050565b600073ffffffffffffffffffffffffffffffffffffffff82169050919050565b60006103598261032e565b9050919050565b6103698161034e565b811461037457600080fd5b50565b60008135905061038681610360565b92915050565b6002811061039957600080fd5b50565b6000813590506103ab8161038c565b92915050565b600080600080608085870312156103cb576103ca6101de565b5b600085013567ffffffffffffffff8111156103e9576103e86101e3565b5b6103f587828801610300565b945050602085013567ffffffffffffffff811115610416576104156101e3565b5b61042287828801610300565b935050604061043387828801610377565b92505060606104448782880161039c565b91505092959194509250565b600080600060608486031215610469576104686101de565b5b600084013567ffffffffffffffff811115610487576104866101e3565b5b61049386828701610300565b935050602084013567ffffffffffffffff8111156104b4576104b36101e3565b5b6104c086828701610300565b925050604084013567ffffffffffffffff8111156104e1576104e06101e3565b5b6104ed86828701610300565b9150509250925092565b7f4e487b7100000000000000000000000000000000000000000000000000000000600052602260045260246000fd5b6000600282049050600182168061053e57607f821691505b602082108103610551576105506104f7565b5b5091905056fea264697066735822122003b31f4897aa2a9007679be0a089781443868966a2b93ae74eb43b58e8012b4864736f6c634300080d0033",
  "immutableReferences": {},
  "source": "// SPDX-License-Identifier: MIT\npragma solidity >=0.4.22 <0.9.0;\n\ncontract Sample {\n    enum Level {\n        High,\n        Healthy,\n        Low\n    }\n    // enum Role {\n    //     Owner,\n    //     Admin,\n    //     Doctor,\n    //     Patient\n    // }\n    \n    enum Designation {\n        doctor,\n        patient\n    }\n    struct Date {\n        uint256 year;\n        uint256 month;\n        uint256 day;\n    }\n    struct Hospital {\n        string name;\n        string description;\n        string location;\n    }\n    struct Doctor {\n        string name;\n        Designation type_name;\n        string location;\n        address hostpital;\n    }\n\n    struct Analysis {\n        string name;\n        address doctor;\n        Date date;\n        uint256 min;\n        uint256 max;\n        uint256 value;\n        uint256 weight;\n    }\n    struct Patient {\n        string name;\n        string contact;\n        string email;\n        Analysis[] history;\n    }\n    mapping(address => Hospital) hospitals;\n    mapping(address => Doctor) doctors;\n\n    function addHospital(\n        string memory name,\n        string memory descr,\n        string memory location\n    ) public {\n        hospitals[address(this)] = Hospital(name, descr, location);\n    }\n\n    function addDoctor(\n        string memory name,\n        string memory location,\n        address hospital,\n        Designation typ\n    ) public {\n        // doctors[address]\n    }\n}\n",
  "sourcePath": "/home/gulshan/Desktop/projects/web3/hp/src/contracts/Sample.sol",
  "compiler": {
    "name": "solc",
    "version": "0.8.13+commit.abaa5c0e.Emscripten.clang"
  },
  "schemaVersion": "3.4.7",
  "updatedAt": "2022-09-23T11:40:52.918Z",
  "devdoc": {
    "kind": "dev",
    "methods": {},
    "version": 1
  },
  "userdoc": {
    "kind": "user",
    "methods": {},
    "version": 1
  }
}