{
    "contractName": "Sample",
    "abi": [
        {
            "inputs": [
                {
                    "internalType": "string",
                    "name": "name",
                    "type": "string"
                },
                {
                    "internalType": "string",
                    "name": "location",
                    "type": "string"
                },
                {
                    "internalType": "address",
                    "name": "hospital",
                    "type": "address"
                },
                {
                    "internalType": "enum Sample.Designation",
                    "name": "typ",
                    "type": "uint8"
                }
            ],
            "name": "addDoctor",
            "outputs": [],
            "stateMutability": "nonpayable",
            "type": "function"
        },
        {
            "inputs": [
                {
                    "internalType": "string",
                    "name": "name",
                    "type": "string"
                },
                {
                    "internalType": "string",
                    "name": "descr",
                    "type": "string"
                },
                {
                    "internalType": "string",
                    "name": "location",
                    "type": "string"
                }
            ],
            "name": "addHospital",
            "outputs": [],
            "stateMutability": "nonpayable",
            "type": "function"
        }
    ],
    "bytecode": "608060405234801561001057600080fd5b50610407806100206000396000f3fe608060405234801561001057600080fd5b50600436106100365760003560e01c80631027628f1461003b578063bfd4e49e14610051575b600080fd5b61004f61004936600461016b565b50505050565b005b61004f61005f366004610204565b6040805160608101825284815260208082018590528183018490523060009081529081905291909120815181906100969082610311565b50602082015160018201906100ab9082610311565b50604082015160028201906100c09082610311565b505050505050565b634e487b7160e01b600052604160045260246000fd5b600082601f8301126100ef57600080fd5b813567ffffffffffffffff8082111561010a5761010a6100c8565b604051601f8301601f19908116603f01168101908282118183101715610132576101326100c8565b8160405283815286602085880101111561014b57600080fd5b836020870160208301376000602085830101528094505050505092915050565b6000806000806080858703121561018157600080fd5b843567ffffffffffffffff8082111561019957600080fd5b6101a5888389016100de565b955060208701359150808211156101bb57600080fd5b506101c8878288016100de565b93505060408501356001600160a01b03811681146101e557600080fd5b91506060850135600281106101f957600080fd5b939692955090935050565b60008060006060848603121561021957600080fd5b833567ffffffffffffffff8082111561023157600080fd5b61023d878388016100de565b9450602086013591508082111561025357600080fd5b61025f878388016100de565b9350604086013591508082111561027557600080fd5b50610282868287016100de565b9150509250925092565b600181811c908216806102a057607f821691505b6020821081036102c057634e487b7160e01b600052602260045260246000fd5b50919050565b601f82111561030c57600081815260208120601f850160051c810160208610156102ed5750805b601f850160051c820191505b818110156100c0578281556001016102f9565b505050565b815167ffffffffffffffff81111561032b5761032b6100c8565b61033f81610339845461028c565b846102c6565b602080601f831160018114610374576000841561035c5750858301515b600019600386901b1c1916600185901b1785556100c0565b600085815260208120601f198616915b828110156103a357888601518255948401946001909101908401610384565b50858210156103c15787850151600019600388901b60f8161c191681555b5050505050600190811b0190555056fea264697066735822122092453ee93d2f405ce186e6632c7f7215780f21dfc3480e82813f917ac3433b0564736f6c63430008110033",
    "sourcePath": "/home/gulshan/Desktop/projects/web3/hp/src/contracts/Sample.sol",
    "compiler": {
        "name": "solc",
        "version": "0.8.17+commit.8df45f5f"
    },
    "functionHashes": {
        "addDoctor(string,string,address,uint8)": "1027628f",
        "addHospital(string,string,string)": "bfd4e49e"
    },
    "gasEstimates": {
        "creation": {
            "codeDepositCost": "206200",
            "executionCost": "251",
            "totalCost": "206451"
        },
        "external": {
            "addDoctor(string,string,address,uint8)": "infinite",
            "addHospital(string,string,string)": "infinite"
        }
    }
}